:10000000002100207D46000029A3000035460000A5
:10001000354600003546000035460000000000006F
:10002000000000000000000000000000A9370000F0
:100030003546000000000000513700003546000042
:1000400081380000813800008138000081380000CC
:1000500081380000813800008138000081380000BC
:1000600081380000813800008138000081380000AC
:10007000813800008138000081380000813800009C
:10008000813800008138000081380000813800008C
:10009000813800008138000081380000813800007C
:1000A000813800008138000081380000813800006C
:1000B000813800008138000081380000813800005C
:1000C000813800008138000081380000813800004C
:1000D000813800008138000081380000813800003C
:1000E000813800008138000081380000813800002C
:1000F000813800008138000081380000813800001C
:1001000081F0004102E000BF83F0004330B54FEAC8
:1001100041044FEA430594EA050F08BF90EA020F35
:100120001FBF54EA000C55EA020C7FEA645C7FEAC8
:10013000655C00F0E2804FEA5454D4EB5555B8BFEB
:100140006D420CDD2C4480EA020281EA030382EA5C
:10015000000083EA010180EA020281EA0303362DEE
:1001600088BF30BD11F0004F4FEA01314FF4801CC1
:100170004CEA113102D0404261EB410113F0004FD3
:100180004FEA03334CEA133302D0524263EB43038A
:1001900094EA050F00F0A780A4F10104D5F1200E28
:1001A0000DDB02FA0EFC22FA05F2801841F1000183
:1001B00003FA0EF2801843FA05F359410EE0A5F157
:1001C00020050EF1200E012A03FA0EFC28BF4CF088
:1001D000020C43FA05F3C01851EBE37101F000453E
:1001E00007D54FF0000EDCF1000C7EEB00006EEB4B
:1001F0000101B1F5801F1BD3B1F5001F0CD34908D5
:100200005FEA30004FEA3C0C04F101044FEA44522B
:1002100012F5800F80F09A80BCF1004F08BF5FEAB2
:10022000500C50F1000041EB045141EA050130BD92
:100230005FEA4C0C404141EB0101013C28BFB1F5A4
:10024000801FE9D291F0000F04BF01460020B1FAEF
:1002500081F308BF2033A3F10B03B3F120020CDAC2
:100260000C3208DD02F1140CC2F10C0201FA0CF0A0
:1002700021FA02F10CE002F11402D8BFC2F1200C05
:1002800001FA02F120FA0CFCDCBF41EA0C019040BB
:10029000E41AA2BF01EB0451294330BD6FEA040404
:1002A0001F3C1CDA0C340EDC04F11404C4F12002EF
:1002B00020FA04F001FA02F340EA030021FA04F301
:1002C00045EA030130BDC4F10C04C4F1200220FA58
:1002D00002F001FA04F340EA0300294630BD21FA96
:1002E00004F0294630BD94F0000F83F4801306BF5C
:1002F00081F480110134013D4EE77FEA645C18BF50
:100300007FEA655C29D094EA050F08BF90EA020FE6
:1003100005D054EA000C04BF1946104630BD91EADE
:10032000030F1EBF0021002030BD5FEA545C05D1E1
:100330004000494128BF41F0004130BD14F5800420
:100340003CBF01F5801130BD01F0004545F0FE4194
:1003500041F470014FF0000030BD7FEA645C1ABFC9
:10036000194610467FEA655C1CBF0B46024650EA00
:10037000013406BF52EA033591EA030F41F400212C
:1003800030BD00BF90F0000F04BF0021704730B5B2
:100390004FF4806404F132044FF000054FF0000187
:1003A00050E700BF90F0000F04BF0021704730B548
:1003B0004FF4806404F1320410F0004548BF40421D
:1003C0004FF000013EE700BF42004FEAE2014FEA72
:1003D00031014FEA02701FBF12F07F4393F07F4F4D
:1003E00081F06051704732F07F4208BF704793F050
:1003F0007F4F04BF41F40021704730B54FF4607463
:1004000001F0004521F000411CE700BF50EA010265
:1004100008BF704730B54FF000050AE050EA01020E
:1004200008BF704730B511F0004502D5404261EB7E
:1004300041014FF4806404F132045FEA915C3FF4BF
:10044000D8AE4FF003025FEADC0C18BF03325FEA5C
:10045000DC0C18BF033202EBDC02C2F1200300FA0D
:1004600003FC20FA02F001FA03FE40EA0E0021FA32
:1004700002F11444BDE600BF70B54FF0FF0C4CF420
:10048000E06C1CEA11541DBF1CEA135594EA0C0FD2
:1004900095EA0C0F00F0DEF82C4481EA030621EA0D
:1004A0004C5123EA4C5350EA013518BF52EA033548
:1004B00041F4801143F4801338D0A0FB02CE4FF0FA
:1004C0000005E1FB02E506F00042E0FB03E54FF02A
:1004D0000006E1FB03569CF0000F18BF4EF0010E22
:1004E000A4F1FF04B6F5007F64F5407404D25FEA1E
:1004F0004E0E6D4146EB060642EAC62141EA5551D1
:100500004FEAC52040EA5E504FEACE2EB4F1FD0C12
:1005100088BFBCF5E06F1ED8BEF1004F08BF5FEA90
:10052000500E50F1000041EB045170BD06F0004642
:1005300046EA010140EA020081EA0301B4EB5C04EF
:10054000C2BFD4EB0C0541EA045170BD41F48011E7
:100550004FF0000E013C00F3AB8014F1360FDEBF0C
:10056000002001F0004170BDC4F10004203C35DAE8
:100570000C341BDC04F11404C4F1200500FA05F36B
:1005800020FA04F001FA05F240EA020001F000420C
:1005900021F0004110EBD37021FA04F642EB060182
:1005A0005EEA430E08BF20EAD37070BDC4F10C04AC
:1005B000C4F1200500FA04F320FA05F001FA04F270
:1005C00040EA020001F0004110EBD37041F100015C
:1005D0005EEA430E08BF20EAD37070BDC4F1200567
:1005E00000FA05F24EEA020E20FA04F301FA05F2CF
:1005F00043EA020321FA04F001F0004121FA04F277
:1006000020EA020000EBD3705EEA430E08BF20EA46
:10061000D37070BD94F0000F0FD101F00046400080
:1006200041EB010111F4801F08BF013CF7D041EA02
:10063000060195F0000F18BF704703F00046520006
:1006400043EB030313F4801F08BF013DF7D043EAD7
:100650000603704794EA0C0F0CEA135518BF95EA8D
:100660000C0F0CD050EA410618BF52EA4306D1D114
:1006700081EA030101F000414FF0000070BD50EA33
:10068000410606BF1046194652EA430619D094EABD
:100690000C0F02D150EA013613D195EA0C0F05D1A7
:1006A00052EA03361CBF104619460AD181EA0301FB
:1006B00001F0004141F0FE4141F470014FF00000B3
:1006C00070BD41F0FE4141F4780170BD70B54FF04E
:1006D000FF0C4CF4E06C1CEA11541DBF1CEA1355CE
:1006E00094EA0C0F95EA0C0F00F0A7F8A4EB0504B0
:1006F00081EA030E52EA03354FEA013100F08880A7
:100700004FEA03334FF0805545EA131343EA12636F
:100710004FEA022245EA111545EA10654FEA002624
:100720000EF000419D4208BF964244F1FD0404F5DD
:10073000407402D25B084FEA3202B61A65EB030539
:100740005B084FEA32024FF480104FF4002CB6EBF6
:10075000020E75EB030E22BFB61A754640EA0C0076
:100760005B084FEA3202B6EB020E75EB030E22BFB6
:10077000B61A754640EA5C005B084FEA3202B6EBF7
:10078000020E75EB030E22BFB61A754640EA9C00B6
:100790005B084FEA3202B6EB020E75EB030E22BF86
:1007A000B61A754640EADC0055EA060E18D04FEA44
:1007B000051545EA16754FEA06164FEAC30343EAE4
:1007C00052734FEAC2025FEA1C1CC0D111F4801FB1
:1007D0000BD141EA00014FF000004FF0004CB6E7AA
:1007E00011F4801F04BF01430020B4F1FD0C88BF49
:1007F000BCF5E06F3FF6AFAEB5EB030C04BFB6EB54
:10080000020C5FEA500C50F1000041EB045170BD46
:100810000EF0004E4EEA113114EB5C04C2BFD4EB73
:100820000C0541EA045170BD41F480114FF0000EF7
:10083000013C90E645EA060E8DE60CEA135594EA73
:100840000C0F08BF95EA0C0F3FF43BAF94EA0C0F76
:100850000AD150EA01347FF434AF95EA0C0F7FF4EB
:1008600025AF104619462CE795EA0C0F06D152EA3F
:1008700003353FF4FDAE1046194622E750EA410623
:1008800018BF52EA43067FF4C5AE50EA41047FF434
:100890000DAF52EA43057FF4EBAE12E77BB972B9B4
:1008A0000029BEBF00204FF0004106E008BF00282D
:1008B0001CBF6FF000414FF0FF3000F057B8ADF1B2
:1008C000080C6DE904CE002909DB002B1ADB00F0CF
:1008D0004FF8DDF804E0DDE9022304B07047404240
:1008E00061EB4101002B1BDB00F042F8DDF804E076
:1008F000DDE9022304B0404261EB4101524263EB67
:1009000043037047524263EB430300F031F8DDF8D4
:1009100004E0DDE9022304B0404261EB410170478D
:10092000524263EB430300F023F8DDF804E0DDE915
:10093000022304B0524263EB4303704753B94AB9F0
:10094000002908BF00281CBF4FF0FF314FF0FF30D7
:1009500000F00CB8ADF1080C6DE904CE00F008F819
:10096000DDF804E0DDE9022304B07047704700BF02
:100970002DE9F04786468C460846089E1546744683
:100980001946002B40F0C2808542B2FA82F245D966
:100990004AB1C2F1200300FA02FC2EFA03F395409B
:1009A00043EA0C0C94404FEA154EA8B2BCFBFEF88B
:1009B000230C0EFB18CC08FB00F943EA0C439945C5
:1009C00028D9EB1808F1FF3704D2994502D9A8F1CC
:1009D00002072B44A3EB0903A4B2B3FBFEFC0EFBFE
:1009E0001C330CFB00F044EA0344A04214D92C1938
:1009F0000CF1FF3304D2A04202D9ACF102032C4423
:100A0000241A43EA07401EB1D440002334607360C7
:100A1000BDE8F0874746DDE76346F1E792BB431B3D
:100A200001214FEA154EAFB2B3FBFEFC200C0EFBCA
:100A30001C330CFB07F840EA0343984562D9EB18D6
:100A40000CF1FF3004D2984502D9ACF102002B44DE
:100A5000A3EB0803A4B2B3FBFEFC0EFB1C330CFBA0
:100A600007F744EA0344A7424ED92C190CF1FF338F
:100A700004D2A74202D9ACF102032C44E41B43EA9E
:100A80000040C0E7C2F1200320FA03F195409040F6
:100A90002EFA03F303434FEA154EAFB2B1FBFEFC4F
:100AA0000EFB1C10190C0CFB07F841EA00418845AD
:100AB00004FA02F422D969180CF1FF3004D28845F7
:100AC00002D9ACF102002944A1EB08019BB2B1FBB1
:100AD000FEFC0EFB1C110CFB07F743EA01439F428F
:100AE0000ED9EB180CF1FF3104D29F4202D9ACF1C0
:100AF00002012B44DB1B41EA004192E76046E3E739
:100B00006146F7E76046A3E76346B7E7834206D945
:100B100016B9002108467BE7C6E900E0F9E7B3FA19
:100B200083F78FB9834201D3724508D8BEEB020424
:100B300060EB030301209C461EB9002168E738469C
:100B4000FAE7C6E9004CF8E7C7F1200CBB4022FAEF
:100B50000CF41C432EFA0CF120FA0CF3B8400143BC
:100B60004FEA14490EFA07F5B3FBF9F81FFA84FEB1
:100B700009FB18300B0C08FB0EFA43EA00439A45B8
:100B800002FA07F240D9E31808F1FF3004D29A457F
:100B900002D9A8F102002344A3EB0A0389B2B3FBF4
:100BA000F9F809FB183308FB0EFE41EA03418E45B4
:100BB0002CD9611808F1FF3304D28E4502D9A8F16F
:100BC0000203214443EA0040A0FB0298A1EB0E017E
:100BD0004145CE46434602D306D14D4504D2B9EB3A
:100BE000020E68EB04030138002EA6D0B5EB0E020E
:100BF00061EB030101FA0CFC22FA07F34CEA030350
:100C0000F940C6E9003198E74046C5E74346D9E7D1
:100C10002DE9F04395B05E480AF0A7FF18B900200F
:100C200015B0BDE8F0834FF4D0115A4808F07EF9B2
:100C30000028F4DB58480AF098FF70B156490A685A
:100C4000564803F0FDFE56480AF08FFF48B154495C
:100C50000A68524803F0F4FE59E0524808F046FA98
:100C6000DDE74F4B1968504808F040FAD7E74C4889
:100C700083681B6906AA0B2198470698FFF792FB29
:100C800004460D460798FFF78DFB3FA3D3E90023E9
:100C9000FFF71CFD02460B4620462946FFF736FAB1
:100CA00004460D460898FFF77DFB06460F46099857
:100CB000FFF778FB34A3D3E90023FFF707FD0246D3
:100CC0000B4630463946FFF721FA06460F460A988A
:100CD000FFF768FB804689460B98FFF763FB2AA362
:100CE000D3E90023FFF7F2FC02460B464046494693
:100CF000FFF70CFACDE90201CDE9006722462B4649
:100D00002A4803F09DFE4FF47A7008F02AF9214832
:100D100008F017F9002882DB1F4C204608F01BF969
:100D2000A5682B6912AA0D21204698472B6910AAA5
:100D30000E21204698472B690EAA1021204698477D
:100D40002B690CAA1D21204698470D9B04930C9BF0
:100D500003930F9B02930E9B0193119B0093109B97
:100D6000139A1299124803F06BFE0D488368DB68F2
:100D7000392198470028BFF67AAF0E4803F060FE8D
:100D80004DE700BFAFF300800000000080842E41DB
:100D900048C2000084C6000090C20000C4C5000024
:100DA000A8C20000A8C50000DCC5000048C60000BD
:100DB000F4C5000024C600002DE9F04F91B0059263
:100DC0000293134602F004020092C3F3C20210F031
:100DD0000303019340F0238207468A460132041D33
:100DE000002847D027B1E31B0433534500F21A8291
:100DF000029B5D1E019B04930693039300264FF014
:100E0000FF3B4FF00408C1460FB1029B2360531E05
:100E10000793002A40F35F81059B13F0020226D05E
:100E20000120E11B8B081AB1B1F5007F80F0008230
:100E300003990F2900F2FF81002F00F06481DBB2DB
:100E400001F140026A4402F8103C02F820BC00287C
:100E500000F0558163F07F0301F140026A4402F81B
:100E6000103C049B01330493039B0133039304342C
:100E700000223DE001F0070A5444CAF1080AB1E734
:100E8000002634E0002632E0002630E04FF008086B
:100E9000C1462CE025292AD10BF1010B01264FF088
:100EA0000408C14623E04729ECD82A2912D32A395D
:100EB000C9B2012000FA01F14FF6DA70014216D1F1
:100EC00011F0625F40F0C48011F0010F40F08E809D
:100ED00000260CE0252903D10BF1FF3B002606E09C
:100EE00001D9002603E0202901D02329CCD11D46B9
:100EF0006B1C6978002900F01D81002ECAD07A2968
:100F0000BED84C29CFD34C392E2961D801A050F836
:100F100021F000BFEF0E0000D10F0000D10F000044
:100F2000D10F0000D10F0000D10F0000D10F000041
:100F3000D10F0000D10F0000D10F0000D10F000031
:100F4000D10F0000E50F0000D10F0000D10F00000D
:100F5000D10F0000D10F0000D10F0000D10F000011
:100F6000D10F0000D10F000051100000D10F000080
:100F7000E50F0000E50F00005110000051100000C7
:100F800051100000EF0E0000E50F00008D0E000074
:100F9000D10F0000EF0E0000D10F0000AF100000D5
:100FA000E50F0000AF100000D10F0000D10F0000CE
:100FB000B9100000DD0F0000E50F0000D10F0000A8
:100FC000D10F0000E50F0000D10F0000D50F000089
:100FD00000268CE74FF00408C14688E74FF004086C
:100FE000C14684E729786C2924D000264444013C7A
:100FF000C8F100010C40204627B1E11B494451458E
:1010000000F21381002A5DD1B9F1040F00F08A804B
:10101000B9F1080F40F012811A99073121F0070148
:1010200001F108001A90D1E900010FB1C4E90001F3
:1010300008345CE713F8021C6C2904D000264FF03A
:101040000408C146D2E700264FF00808C146CDE7A4
:1010500029784C291BD01A99073121F0070101F199
:1010600008001A90D1E90001073424F0070447B1C1
:10107000E61B0836564514D82D784C2D14D0C4E9FB
:101080000001083400264FF00808C1462FE71A99DE
:10109000073121F0070101F108001A90D1E90001A0
:1010A000E2E76FF01B00B7E0C4E90001E9E70026C2
:1010B0004FF00408C14699E7324600264FF0040875
:1010C000C14693E704461A9A111D1A9112680292BA
:1010D000079A1D4698E65F4B029A9A4204D35E4BEC
:1010E0009A420AD3002300E00023002B7FF494AE41
:1010F000059B03F00202002093E60123F5E7069B1F
:1011000001330693B0E610B10AF1010AACE6009B88
:1011100013B10AF1020AA7E6029809F08EF9831CBE
:101120009A44A1E61A99081D1A90096807B121602E
:101130000434DCE6E31BB3F5806F80F0828097B166
:1011400000223A609B083B70009B83B1069BFB70BA
:10115000049BBB701BBB019DDDF80C90DDF810B04B
:10116000DDF808803BE05344A3F1080054E0069BFF
:101170007B70EDE701339842EDD903F140026A44F8
:1011800012F8101C12F9102C002AF3DA01F07F017A
:10119000E21B0132524557D804F8011BEAE7019BD4
:1011A0000398E8E7009B3BB305F140036B4413F859
:1011B000203C04F8013B019EE31B334401335345BB
:1011C00045D805F140036B4413F8103C04F8013B8B
:1011D00032464146204609F04EF934440135A945CE
:1011E00019D9BBF1000FDDD005F140036B4413F9B1
:1011F000103C002BD6DAF1E705F140036B4413F8FD
:10120000103C57F82380002247F82320404609F07D
:1012100014F9461CD0E7E01B11B0BDE8F08F6FF069
:101220000D00F9E76FF01B00F6E76FF01B00F3E726
:101230006FF01500F0E76FF01500EDE76FF01500A7
:10124000EAE76FF01500E7E76FF01B00E4E76FF0E7
:101250001B00E1E7A8C10000F0D300002DE9F04F2A
:1012600097B000AF8346BA613B61D7F88030C3F3D3
:10127000C0033B62F96051B19BF80260B14656B1C0
:10128000D7F8803013F0010F11D1002304E007F0EC
:101290008CFEF860F0E700239BF803207A6242B1ED
:1012A000D7F8802012F0020F22D1002202E00123A1
:1012B000F2E7002202B9EBB19BF80050AA00BA6035
:1012C000DBF804207A610BEB8505BA69F2B1002BDB
:1012D00040F01081B9F1000F00F01B81D7F8803089
:1012E00013F0040F40F019810020F861064605E173
:1012F0000122DFE7BB691BB13A69F9685846984794
:10130000FC6820465C37BD46BDE8F08FFC682BBB0F
:10131000B9F1000F38D0D7F8803013F004033B61E7
:1013200027D04D4400233B6123E0044401350136BE
:101330004E451AD22A7800235BF822201946B86954
:1013400007F048FEBAF1000FEFD0D7F88830984583
:10135000EBD22AF8180008F10108E6E70026C7F8E2
:101360001C80B046D7F884A0E2E7C7F81080D7F811
:101370001C80D7F8803003F00503FB604FF0000AB3
:10138000A146C7F81CB09FE0C7F81090F1E7002510
:101390003B6A7BB9002D79D0D7F8803013F0010F6C
:1013A00079D1FB68002B6FD10223A9EB030988E0F8
:1013B0000125EDE75946786907F053FE0028E9D08A
:1013C0006C46002387F82C30022387F82D308AB032
:1013D000694611F1100237D012251AB1042D01DD32
:1013E000B24B4B61002387F82830022387F829305D
:1013F0006ABB112D45DD122362B1042087F82C0051
:10140000002087F82D0087F82E00012087F82F0094
:10141000F86A08616FF300086FF341086FF3820800
:101420006FF3C508022161F38818C3F30A0363F35D
:1014300053286FF31F58002341469D4801F012FBCB
:10144000A546A9F102093CE06FF00045C5E72B462F
:10145000082D01DD786988610C2B01DDC1F81CB015
:1014600001F12003002009E000F1300C07F1280E03
:10147000F4441CF830CC03F801CB01300128F3D937
:10148000B7E76FF01B03B7E701238EE7D7F880308B
:1014900013F0020F15D0002322461946B86907F051
:1014A00099FDD7F8843053B13B69D7F8882093422F
:1014B00005D2D7F8842022F8130001333B610138AC
:1014C00081440AF1010A35467B6A9A4510D22E46BC
:1014D00016F802BB6B78FA6952F82340754B9C42B0
:1014E000FFF455AF744B9C42FFF462AF00254FE709
:1014F0004C4606E707F144000023FB6118B14A4659
:10150000294608F0B8FF4D444FF00008C7F8049092
:101510001EE00020F8610646F0E7FE6107F13400A6
:101520000026EBE700253B6A33BB002D3BD0D7F804
:10153000803013F0010F26D0731C06F1300207F142
:101540002801561806F8149CDEB208F10108254659
:101550007B6A98454AD22C4614F802AB95F8019064
:101560005BF82930534A9342DCD3534A934201D368
:101570000025D8E70125D6E75146786907F071FDC7
:101580000028D2D0E1E7D7F8803013F0040FDCD088
:10159000FA69531C303207F128010A4402F8249CEE
:1015A000DBB2FB61D1E7D7F8803013F0020F09D02E
:1015B000731C06F1300207F12801561806F8149C36
:1015C000DEB2C2E7F869431C00F1300107F12802DE
:1015D0008A1802F824AC02460232D2B2FA6107F14C
:1015E000580252FA83F303F8249CAEE7D7F804902C
:1015F0009BF8003087F854309BF80130334487F86B
:101600005530D7F8803013F0020F0ED1FB69C3F3C9
:10161000470387F85730D7F8803013F0010F06D111
:1016200013F0040F3FD1002302E00023F1E7002371
:1016300087F85630DBF800003863786DCBF800008F
:10164000D7F810804246B9685846D7F818A0D04756
:10165000041EFFF656AE386BCBF80000C7F81080BA
:101660004246F96907F13400D047002857DB04EB04
:101670000008B96849447B6A01EB4301D7F8109030
:101680004A46FB68591A2846D047041EFFF639AE71
:1016900008EB04054FF000087E62C7F820B05646FC
:1016A000D7F884B01FE0FB69C2E700BF8CC600001A
:1016B000C0C40000A8C10000F0D300004FF0000A31
:1016C0004A46012107F12C00B047002829DB0544D8
:1016D000534622464946304607F07CFC002822DB70
:1016E000054408F101087B6A984511D208F13003DE
:1016F00007F12802134413F8143C87F82C303A6A97
:1017000052F82340BBF1000FD8D03BF818A0D7E720
:101710003A6900210846BB6998472C46F1E5044622
:10172000EFE50446EDE50446EBE500BF014B18602C
:10173000704700BF0000002010B586B0044603903B
:10174000049100210591009103A9064800F014FBC3
:10175000059B049A934201DA0022E254059806B0F0
:1017600010BD00BFB59000002DE9F04383B00446E2
:1017700008461546238B13F0080F05D103F0070622
:1017800000230093019355E0012909D043F0200381
:10179000238385F31188BFF36F8F03B0BDE8F08317
:1017A00043F010032383F4E7204607F0EFFC43E007
:1017B000D4F814904A466946204607F000FD4FF0E1
:1017C0000008238B03F00707B74269D0A268002AFC
:1017D00066D0012243F00803238385F31188BFF309
:1017E0006F8F002A64D1009B2BB14B463A46694665
:1017F000204607F05DFDB8F1000F02D034492046C5
:10180000C0474FF02003EFF3118583F31288BFF335
:101810006F8F238B23F008032383238B13F0100F88
:101820004CD023F0100323830120268B06F00706FB
:101830000028AED00228B7D00028AAD0013804284A
:101840002AD801A353F820F0B1170000991800001E
:101850005D18000071180000851800002369D3F896
:1018600000800621204607F067FC4FF00009A8E73A
:101870002369D3F804800421204607F05DFC4FF073
:1018800000099EE72369D3F808800521204607F068
:1018900053FC4FF0000994E74FF00008C14690E771
:1018A000009A0AB1002295E7B8F1000F92D1B4E78F
:1018B0004A463946204607F047FC94E713F0200FCC
:1018C00004D023F0200323830220AEE70020ACE7FE
:1018D000DF92000084460846012226E09CF8003092
:1018E00043F004038CF80030F2B101301CE09CF8A6
:1018F000003043F008038CF80030F5E79CF8003026
:1019000043F010038CF80030EEE79CF8003043F011
:1019100020038CF80030E7E79CF8003043F04003E8
:101920008CF80030E0E7002242B30378203B102B14
:10193000F9D801A151F823F0FD1800002719000083
:10194000271900000B1900002719000027190000B3
:101950002719000027190000271900002719000087
:1019600027190000EF18000027190000DD180000FB
:101970002719000027190000191900009CF80030F1
:1019800003F04403442B00D070479CF800306FF301
:1019900086138CF80030F7E72DE9F04F87B0174633
:1019A0001E46DDF8449002460B1E07DB397811F025
:1019B000080F14D02B211098017002E02D211098EF
:1019C000017097F80380C3F30A54C3F3130304921E
:1019D00005935CB952EA030128D1002107E011F018
:1019E000100FEED0202110980170EAE7002140F29C
:1019F000FF7084421CD0B8F1460F59D0DB0243EA95
:101A00005253D2020492059323F0004305932243DC
:101A100043EAE4731A4307D000294DD1A4F2FE34FF
:101A2000059B43F000430593002566E00121DEE7B6
:101A3000134322D1A8F14108B8F1190F11D8492355
:101A400089F800304E2389F8013009F1030246235A
:101A500089F802303B786FF386133B70129B1A6053
:101A600074E1692389F800306E2389F8013009F1A7
:101A70000302662389F80230ECE7A8F14108B8F1C7
:101A8000190F0AD84E2389F80030412289F8012025
:101A900009F1030289F80230DCE76E2389F800308F
:101AA000612289F8012009F1030289F80230D1E7A7
:101AB0004FF06608A2E7013C049B059ADB185241EF
:101AC00004930592002AF6DAA8E7059B049A5208C7
:101AD00042EAC3725B080492059321460134B3F1D4
:101AE000333FF2D29C0044EA92749000801843EB9A
:101AF0000403049005938C1C013D14F1020FE4DBF8
:101B000014E0049B0233059A42F10002049305920B
:101B100004A807F075FE013C01350499059B49189E
:101B20005B4104910593013C002BF6DA002CE8DCC4
:101B3000C4F10401059A1C34A1F12000049BCB40A0
:101B400002FA04F4234322FA00F00343CA40049348
:101B50000592B8F1670F14D0B8F1470F11D04FF0CC
:101B6000000BB8F1660F2AD006F1010A1023039387
:101B70009A4500DD9A4600224FF00063CDE900232C
:101B800029E015F1030F01DBB54211DDA8F10208D0
:101B90005FFA88F8002E00DD013E3B78C3F3401B5E
:101BA00013F0200F08D1002EDBDD4FF0010BD8E73A
:101BB000761B4FF06608F0E74FF0000BD1E715EB0E
:101BC000060AD3D5102303934FF0000AD3E76846E3
:101BD00007F032FEA2460AF1FF34BAF1000FF6D147
:101BE000049B009A9B18059A019942EB0102049309
:101BF00005924FF0FF3199426FF07043934106D345
:101C0000B8F1660F38D1002D31DD4C460BE004A849
:101C100007F012FE0135F3E703A904A807F018FE48
:101C200004F8010B013D002D02DD039B002BF3DCCA
:101C30007D6055463B7813F0200F01D1002E02DD68
:101C40002E2304F8013B002D33DA002E31DD6B42E8
:101C50007B609E4200DA7E607B68F61A002BD4BF60
:101C600000230123BA7863F34512BA7021E04C4691
:101C7000302304F8013BDDE703A904A807F0E8FDE1
:101C80004C4604F8010B302800D0013D3B7813F09E
:101C9000200F01D1002E0CDD09F102042E2389F85A
:101CA000013006E003A904A807F0D2FD04F8010BF7
:101CB000013E002E02DD039B002BF3DCBE60BBF176
:101CC000000F09D00023BB6023461C4613F8012DEA
:101CD000302AFAD02E2A3DD0B8F1650F02D0B8F1E3
:101CE000450F26D184F80080002D35DBA21C2B2364
:101CF0006370632D0CDD1E4981FB0531EB17C3EBCF
:101D0000611303F1300102F8011B642101FB13553B
:101D1000184981FB0531EB17C3EBA10303F1300137
:101D2000144604F8021B03EB8303A5EB4303303393
:101D300053707B68002B14DD4FF0010ABB786AF307
:101D40008613BB70129B1C6000232370484607B0AB
:101D5000BDE8F08F1C46BFE76D42A21C2D236370C7
:101D6000C7E7BB68002BE9DD4FF0010AE6E700BFDB
:101D70001F85EB51676666662DE9F04F97B0064602
:101D80000D4690460593002498F80000002800F0C6
:101D90004583252808D008F101082946B0470028C6
:101DA000C0F23D830134EFE70023089309930A93BF
:101DB0000B930C930D930DF1550207928DF81B3088
:101DC00041460AA807F0FAFC81469DF8293013F035
:101DD000010F00F09E80059B1A1D05921F68002FC1
:101DE000C0F28F809DF8293013F0040F00F0A3801B
:101DF000059B1A1D0592D3F800A0BAF1000FC0F29E
:101E0000918000230B930C939DF82A3003F0070375
:101E1000042B00F099809DF82A3003F007039DF809
:101E20002910C1F3C301012B00F09E80022B00F0AA
:101E3000E380042B00F03481032B00F04B819DF8EC
:101E4000282012F0030F40F04B819DF82B30253BEA
:101E5000532B00F2FC81DFE813F04F01FA01FA0185
:101E6000FA01FA01FA01FA01FA01FA01FA01FA019A
:101E7000FA01FA01FA01FA01FA01FA01FA01FA018A
:101E8000FA01FA01FA01FA01FA01FA01FA01FA017A
:101E9000FA01FC01FA01FA01FA01FC01FC01FC0162
:101EA000FA01FA01FA01FA01FA01FA01FA01FA015A
:101EB000FA01FA01FA01FA01FA01FA01FA01FA014A
:101EC000B101FA01FA01FA01FA01FA01FA01FA0183
:101ED000FA01FC01FA019C01A501FC01FC01FC01D5
:101EE000FA01A501FA01FA01FA01FA01F501B101BD
:101EF000DC01FA01FA015701FA01B101FA01FA0114
:101F0000B1019DF8283043F004038DF828307F425A
:101F100068E79DF92830002B02DB4FF0FF3761E7BF
:101F20000B9F5FE79DF829306FF341038DF829304F
:101F30004FF0FF3A65E713F0020F02D0DDF830A052
:101F40005FE74FF0FF3A5CE79DF8293013F0020F8E
:101F50007FF461AF9DF92930002B02DB4FF0060AB8
:101F600059E74FF00D0A56E7CB1E042B04D8DFE8E3
:101F700003F00B1D29353500059B1A1D05921B68C2
:101F8000DA170893099206E0059B1A1D05921B6853
:101F9000DA1708930992012928D002297FF44FAF5C
:101FA000BDF92030DA170893099248E7059B0733FB
:101FB00023F0070303F108020592D3E90023CDE9DA
:101FC0000823E8E7059B073323F0070303F1080222
:101FD0000592D3E90023CDE90823DCE7059B1A1D10
:101FE00005921B68DA1708930992D4E79DF920300F
:101FF000DA170893099222E7CB1E042B04D8DFE8F6
:1020000003F00B1F35414100059B1A1D05921B680B
:102010000893002309931EE09DF82B30632B07D013
:10202000059B1A1D05921B6808930023099312E073
:10203000059B1A1D05921B680893002309930AE06B
:10204000059B073323F0070303F108020592D3E948
:102050000023CDE9082301291CD002297FF4EFAE2B
:10206000BDF82030089300230993E8E6059B073369
:1020700023F0070303F108020592D3E90023CDE919
:102080000823E8E7059B1A1D05921B6808930023A7
:102090000993E0E79DF82030089300230993CEE6EA
:1020A00008290BD0059B073323F0070303F108022F
:1020B0000592D3E90023CDE90823C0E6059B073349
:1020C00023F0070303F108020592D3E90023CDE9C9
:1020D0000823B4E6059B1A1D05921B680893AEE61B
:1020E0004B4642462946304607F054FC0028C0F2D1
:1020F00096810444C84647E629462520B047002873
:10210000C0F28D810134A2E0DDF82080BAF1000F29
:102110003BDB5146404608F099F940440790B8F13E
:10212000000F00F09480079BA3EB08039DF81B00B1
:1021300000B101339DF82A1011F0100F00F09880C3
:1021400002330B9A134411F0400F01D00C9A134440
:10215000002F40F3A580FF1A9DF8283013F0040FDC
:1021600040F09E8013F0400F00F09380002800F0B4
:1021700093802946B0470028C0F2518101340023E2
:102180008DF81B304FF0300A88E0404608F055F9D2
:10219000C3E7089B8DF83C300DF13D0307930DF12B
:1021A0003C08C0E712F0080F23D02B238DF81B301A
:1021B000089A099B002B23DB08920993079B009345
:1021C0000FAB0AAADDE9080107F075FB8046BAF1FA
:1021D000000FA4DB079BA3EB08039DF828206FF3F7
:1021E00086128DF828209A4599D9AAEB03030B9300
:1021F00095E712F0100FDBD020238DF81B30D7E7C6
:102200002D218DF81B10524263EB43030892099372
:10221000D4E7089820B9834B0793A3F1050882E718
:10222000079B00930FAB0AAA002107F044FB8046EE
:102230009DF82A3043F010038DF82A3078238DF86A
:102240002B30C4E7224608990AA807F084FBC84649
:102250009AE507AB02930FAB01930DF11B030093BB
:1022600053460AAADDE90801FFF796FB804656E7C8
:1022700011F0080F3FF465AF013362E701343B46CC
:102280005F1E002B0CDD29465046B0470028F5DACA
:10229000C5E04FF0200A01E04FF0300A3B46EFE77F
:1022A0009DF81B0028B12946B0470028C0F2B7802E
:1022B00001349DF82A3013F0400F72D09DF9293077
:1022C000002B0EDB98F80000A0F13003092B15D885
:1022D00008F101082946B0470028C0F2A080013467
:1022E000F0E798F80000702844D008F1010829466A
:1022F000B0470028C0F293800134F2E7DDF82CA04B
:102300009DF82A3013F0200F11D098F800002E28E5
:102310001CD098F80000A0F13003092B2AD808F14E
:1023200001082946B047002879DB0134F1E70AF1BA
:10233000FF3BBAF1000F07DD29463020B0470028E7
:102340006DDB0134DA46F2E7DA46DEE708F1010830
:102350002946B047002862DB01340AF1FF3BBAF19D
:10236000000FD6DD29463020B047002857DB013466
:10237000DA46F2E70C9B03F1FF3A002B07DD294612
:102380003020B04700284ADB01345346F3E7079B6F
:1023900042462946304607F0FDFA00283FDB044458
:1023A00032E09DF82A30C3F30012C3F3C0031A438E
:1023B00005D029463020B047002830DB01349DF895
:1023C0002A3013F0100F06D029469DF82B00B04795
:1023D000002824DB01340B9B03F1FF3A002B07DDBF
:1023E00029463020B047002819DB01345346F3E773
:1023F000079B42462946304607F0CCFA00280EDB00
:10240000044401E00134013F002F05DD294620206E
:10241000B0470028F6DA02E0C846B5E4204617B017
:10242000BDE8F08F49C7000004F028B938B505466B
:102430000B4C00E010340B4B9C420FD263685B796D
:10244000002BF7D02946204607F0C6FD0028F1D022
:1024500023681B68294620469847EBE738BD00BF34
:1024600030C5000050C5000070B506460D46084C4A
:1024700004E02A463146204698471034054B9C42DA
:1024800004D223689B69002BF3D1F6E770BD00BF2F
:1024900030C5000050C500002DE9F0410746054653
:1024A0000AE007EA0807144B03EB06135B680422F3
:1024B0001968204600F0A8FAD5B195FAA5F6B6FA43
:1024C00086F60D4C04EB06140123B3406FEA0308B3
:1024D00025EA0305237B002BEED03301064AD358AF
:1024E0001B69002BDDD0204698470028E4D1D8E7AF
:1024F0003846BDE8F08100BF30C500002DE9F0414D
:1025000080460F46204BBFF35B8F53E8005F6A1C89
:1025100043E800210029F8D1BFF35B8F002D2FD1B4
:102520001A4C002607E0636804221968204600F070
:102530006BFA01361034164B9C4213D2237B002BCE
:10254000F8D02368DB680BB12046984723681B69E5
:10255000002BE8D0204698470028E4D00123B34060
:102560001D43E6E7B8F1000F0BD055B12846FFF741
:1025700093FF0546002FF8D00A2007F033FDF4E75B
:1025800000252846BDE8F081C408002030C50000C1
:1025900050C5000008B5064B186018B1054B1B6804
:1025A000092B00DC08BD044805F036FDFAE700BF42
:1025B000B8080020C00800204001002008B50248EB
:1025C00005F02AFD08BD00BF4001002030B589B0EC
:1025D00000220F490F4809F0C2FD0F4D00220023D1
:1025E000CDE90623002404940E230393029401945E
:1025F00000940A4B4FF440720949284609F0F7FA53
:102600000849284605F05AFB204609B030BD00BFF6
:10261000BD250000080600205001002069290000A7
:10262000001000204CC70000014B53F820007047F9
:1026300068C7000048B108B5054A1060054B19602D
:10264000084600F0AFFC002008BD6FF01500704791
:1026500004000020B408002008B5054B1B781BB10E
:10266000034B01221A7008BD024805F0D5FCF7E7BC
:10267000CC0F0020400100200D4BBFF35B8F53E8CF
:10268000001F013143E80012002AF8D1BFF35B8F2D
:1026900000B97047074BBFF35B8F53E8001F013948
:1026A00043E80012002AF8D1BFF35B8FF1E700BFC7
:1026B000BC080020C0080020064B00200146BFF3E4
:1026C0005B8F53E8000F43E80012002AF9D1BFF3F3
:1026D0005B8F7047BC08002038B5FFF7EDFF05465B
:1026E000094C00E01034094B9C420BD263685B79C3
:1026F000002BF7D023685B68002BF3D029462046D7
:102700009847EFE738BD00BF30C5000050C5000056
:10271000034B18680028D4BF00200120704700BF79
:10272000BC08002010B5044C0449204607F0A3FA69
:10273000034B1C6010BD00BFF000002054C7000018
:10274000B008002008B50023064A1370064A13603B
:10275000064A13604FF400410548FFF76BFFFFF78F
:10276000E1FF08BDCD0F0020BC080020C0080020FC
:10277000DD9F000008B50146014807F049FC08BD8F
:10278000F000002008B5024807F059FB08BD00BF63
:10279000F000002008B50146024B186807F03EFC27
:1027A00008BD00BFB008002008B5024807F03AFC99
:1027B00008BD00BFF000002010B582B00022002349
:1027C000CDE90023284B187808B902B010BD68463F
:1027D00007F040FC044688B1244BBFF35B8F53E8FD
:1027E000001F013943E80012002AF8D1BFF35B8FC4
:1027F0002046FFF71BFE2046FFF7CCFFFFF788FFC0
:1028000058B91B4A1368516813F57A7341F10001F6
:1028100013605160FFF7C8FFD7E709F08AFC4A014F
:1028200042EAD06243011B1A62EB0102920042EAC3
:1028300093729B001B1842EB0102D20042EA5372D2
:10284000C3F3103343EA4243D20B0948016840689E
:102850005B1A62EB000240F2E9318B4272F1000236
:10286000CFD3FFF739FFCCE7CC0F0020C008002002
:10287000000600200F4B1B7803B1704710B50021F4
:102880000120FFF73BFE0C4C00E010340B4B9C4248
:1028900008D263685B79002BF7D023689B682046D9
:1028A0009847F2E7FFF788FF0028FBD1014B012290
:1028B0001A7010BDCD0F002030C5000050C50000BB
:1028C00010B582B01B4BBFF35B8F53E8002F511C38
:1028D00043E800100028F8D1BFF35B8F164B1B783C
:1028E00063B9164B1B68BBB1C2B10A2A14D1144894
:1028F00009F041FC134805F08FFB0DE04FF0200379
:10290000EFF3118483F31288BFF36F8FFFF754FF47
:1029100084F31188BFF36F8F02B010BD0022002333
:10292000CDE900234FF400420023054806F084FA65
:10293000F2E700BFC0080020CD0F0020B80800203B
:10294000080600204001002010B50446044B1B6817
:102950009847A0602146034807F080FB10BD00BFE8
:1029600004000020F00000202DE9F041002108467D
:10297000FFF7C4FD804640B140F26766002706F0CD
:1029800049F8FFF707FE002515E04FF0FF364FF03E
:10299000FF37F4E74046FFF77FFD804670B94FF000
:1029A000FF364FF0FF3709E02C4632463B460948D8
:1029B00005F056FB2546B8F1000FEBD1FFF7FCFE02
:1029C00004460028F6D1002DEED000210846FFF77E
:1029D0004BFDEAE7400100200248034BC01AC00843
:1029E000704700BF30C5000090C4000010B50C4611
:1029F000FFF7F2FFA04203D9024B53F8340010BD99
:102A00000020FCE790C4000008B5094BC31A1B1155
:102A10000133D0F804C08CF8043043689A714368DD
:102A20001960436801225A71FFF716FE08BD00BF06
:102A300030C5000000B589B00592069300230793C6
:102A400062B1074A0C9B02930B9B01930A9B009374
:102A500005ABFEF703FC09B05DF804FB0022F1E7CB
:102A60006DA000002DE9F04F8BB004AF05461E4667
:102A70008846C1F34A24002C00F089809146002248
:102A8000FA603A617A6104230293FB1801930A23E6
:102A9000009307F10C0321464846FEF7DFFBB0F533
:102AA000006F58D3D9F804106D4600233B730223FE
:102AB0007B738AB004AC14F1100217D012201AB143
:102AC000042801DD3B4B636100233B7002237B70D4
:102AD000CAB10346082800DDA1610C2B02DD40F2DB
:102AE000FF73E36104F1200300210AE06FF000406E
:102AF000E5E701F118063E4416F8186C03F8016B7F
:102B000001310129F5D9112822DD122342B1042116
:102B1000397300217973B9730121F973F868206161
:102B200000216FF300016FF341016FF382016FF336
:102B3000C501022060F38811C3F30A0363F3532134
:102B40000023C1F313011C4807F0BDFAAD462DE088
:102B50006FF01B03DAE760F35328C0F30A0A0AEBAD
:102B60001850173020F007008008FFF703FE834657
:102B7000B0B104230293FB1801930A230093534638
:102B800000F1100221464846FFF754FF08E004EB2D
:102B90001154173424F00704A008FFF7EBFD834617
:102BA000334642462946584607F076FA1C37BD465A
:102BB000BDE8F08F88C70000E8C400000EB400B57F
:102BC00084B0014605AB53F8042B0393002000901A
:102BD0000348FFF7D1F804B05DF804EB03B0704789
:102BE000FDA1000030B585B011F0440F05D01A4B9F
:102BF0001C6834B9002005B030BD1849FFF7DEFF6E
:102C0000F9E7174B1968B2FBF1F1B1FBF4FC154A77
:102C1000A2FB0C32D20A4FF4616E0EFB12CE124BA5
:102C2000A3FB0E535B0904FB1C114FF47A7C0CFBD5
:102C300001F1B1FBF4F504FB15110CFB01F1B1FB43
:102C4000F4F102910195C3EB0311AEEB8101009108
:102C50000649FFF7B3FFCEE7CC080020C8C7000045
:102C6000C8080020C5B3A29189888888D4C700000D
:102C700061B108B52AB1064A52F8232012B9054AB3
:102C800000E0044A0449FFF799FF08BD704700BF00
:102C900078C80000F0C70000F8C700002DE9F04137
:102CA000054690461E46069F81B900242EB1324645
:102CB00010492846FFF782FF0444B7B1B8F1000F6E
:102CC0000DD0079B042B13D00B4909E00B4B079A3F
:102CD00053F822200A49FFF771FF0446E6E7064948
:102CE0003A462846FFF76AFF04442046BDE8F081D3
:102CF0000449F5E710C8000000C800008CC80000B7
:102D000008C80000FCC700002DE9F04F85B005465B
:102D10000C46164603939DF8408001F0020B01F02B
:102D2000010AC1F3C00907F09FF9D8B10246124960
:102D30002846FFF743FF0746BBF1000F14D1424678
:102D40005146284607F01AFACDF804800F9B0093ED
:102D50000E9B324649462846FFF7A0FF384405B08F
:102D6000BDE8F08F0027E7E7039A21462846FFF7E2
:102D700039FF0744E3E700BF14C8000011F0100F4B
:102D80000BD108B511F0200F03D00449FFF716FF4F
:102D900008BD0349FFF712FFFAE77047D8C50000E6
:102DA00018C800002DE9F04105460F461646984622
:102DB0000699FFF7E3FF0024444505DA2349284636
:102DC000FFF7FCFE0134F7E7002409E01F4928461D
:102DD000FFF7F4FE0BE01E492846FFF7EFFE013433
:102DE0000F2C0CDC002C02DD14F0070FEED0B442E7
:102DF000F1D23A5D17492846FFF7E0FEEFE71649A2
:102E00002846FFF7DBFE002409E010492846FFF7BB
:102E1000D5FE0BE011492846FFF7D0FE01340F2CF8
:102E200012DC002C02DD14F0070FEED0B44206D203
:102E30003A5DA2F120035E2BECD92E22EAE703498A
:102E40002846FFF7BBFEE9E7BDE8F0810CC80000AB
:102E500024C800001CC8000028C800002CC80000BE
:102E60002DE9F04184B004469DF828500B9F0D9E3B
:102E700095B9012B1BD017484FF0000827B13B46EE
:102E80002246154906F0BDF8AEB9EDB9204607F067
:102E9000A8F904B0BDE8F0810295019300920B46B9
:102EA00000220E99FFF730FF80460C48E6E70B48FA
:102EB0004FF00008E2E70E9B0093434632460C9920
:102EC000204607F073F9E0E72A460E99204607F0FE
:102ED00061F9DBE735A200006DA10000FDA1000053
:102EE0002DE9F04186B005460C461746D1F808801A
:102EF0000E88C6F382160878C0F3C2004B6833B15F
:102F0000114A9B1A43F3CF01002918DA0023224605
:102F100052F8101BC1F34A216088C0F30B105418FB
:102F200001B90022049703900294019200960022B6
:102F300041462846FFF794FF06B0BDE8F081FFF751
:102F400055FD0346E3E700BF90C4000070B582B0B2
:102F50000446056842F20F738B4228BF0B460E4AA7
:102F60000521684606F0D0F8064663685B680B22C8
:102F70000A49284607F0EDF863685B6832466946FF
:102F8000284607F0E6F863685B681B220449284678
:102F900007F0DFF802B070BD2CC700004CC800007D
:102FA00030C80000074B01221A6004E04008054ABF
:102FB00013685B001360044B9842F7D8034B18600A
:102FC000704700BFC808002040420F00CC08002016
:102FD000034B01221A70034B034A1A60704700BF6B
:102FE000CE0F0020F8080020FC080020014B1960DB
:102FF00000207047E408002008B518B9074B0022EC
:103000001A7008BD064B1B7823B141F2883009F0D5
:1030100094F8F6E7052007F01CF9F2E7CE0F002040
:10302000CF0F002038B504460A4B01221A700A4B14
:103030001B782BB938BD651E2046FFF7DDFF2C46F7
:10304000002004F085FB0028F4D0024B1B78002BF5
:10305000F1D1EFE7CE0F0020CF0F0020F8B50646E4
:103060000D4604270DE02A463146002004F00CFBF3
:10307000044614E03846FFF7D5FFDCB9114B1B7846
:10308000C3B1114B1B78002BEDD104F071FB2A4624
:103090003146002004F0F8FA044604F075FB002CD9
:1030A000E8D1084B1B78002BE7D0013F3846FFF7EB
:1030B000A3FFE2E714B9034B1B7803B92C46204663
:1030C000F8BD00BFCE0F0020CF0F002008B5034B86
:1030D00001221A70024807F084F808BDCF0F0020C3
:1030E000CCC8000008B50248FFF730FF08BD00BF9C
:1030F000CCC8000010B50C46044B1868FFF794FAD2
:1031000003460F2221460248984710BDE4080020DC
:10311000CCC8000070B506460D46002405E0315DC0
:10312000044883685B6898470134AC42F7D328466B
:1031300070BD00BF60C20000014B196000207047E5
:103140002C09002008B5034B01221A70024807F031
:1031500048F808BDD00F002018C9000008B5024883
:10316000FFF7F4FE08BD00BF18C9000010B50C46FB
:10317000044B1868FFF758FA03460F22214602480D
:10318000984710BD2C09002018C9000070B50546ED
:103190004FF02003EFF3118683F31288BFF36F8F94
:1031A0000E4B1C680DE0A2683AB10D4B1B7C03EB83
:1031B00043030C4911F8230090472346246804B1C7
:1031C00023B12CB1002DEED06268EDE71C46F8E784
:1031D00086F31188BFF36F8F70BD00BF48090020D0
:1031E000880F00203C09002008B5064B23B1417828
:1031F000007807F0ABF908BD002383F31188BFF313
:103200006F8FF8E74DA5000070B50E4B1C7C214672
:103210000D4807F035F800B970BD650004EB4400B7
:103220000A4E06EB8000FFF7DFFF0020FFF7AEFF3E
:103230002B19990006EB8303002272505A609A60A2
:10324000EAE700BF880F0020500900203C09002059
:10325000F8B50546384B1C7C4FF02003EFF3118680
:1032600083F31288BFF36F8F04EB4402334B13F8E0
:103270002230002B39D0324B03EB820C2F4F4FEA18
:10328000820E07EB820393E807008CE80700002317
:1032900007F80E3086F31188BFF36F8F04EB4403F9
:1032A000274A12F82330002B44D0B5F1FF3F2BD131
:1032B00005F0AEF80120FFF769FF2146214806F02E
:1032C000FBFF214B5BB11E4A04EB440302EB83037B
:1032D00004EB4404597812F8240007F02FF9FFF7A3
:1032E00093FF05F081FA0120F8BD0146204600F069
:1032F00031F80028CED004EB4401114B03EB8103DD
:1033000007C883E80700C5E704EB44020C4B03EB56
:1033100082039868410CC0030C4BC0180C4A4FF054
:10332000000341F10001FDF709FB0121281A03F018
:103330000BF9BDE70020D7E7880F002030090020F7
:103340003C090020500900203DA500003F420F002D
:1033500040420F002DE9F04182B00E4601A900F075
:1033600045F8441E24B207E0B6F1FF3F33D0804455
:10337000B04530D9013C24B2002C2BDB019B04EB7F
:10338000440203EB8205697813F8220006F0A7FFD8
:103390000028EFD16868410CC003114FC019114AD1
:1033A0004FF0000341F10001FDF7C8FA8046AB6819
:1033B000590CDB03D8190B4A4FF0000341F100010F
:1033C000FDF7BCFA084B1B68B3F1FF3FCCD083423A
:1033D000CAD8CFE70025284602B0BDE8F08100BF7B
:1033E0003F420F0040420F000800002008B9024B86
:1033F0000B600020704700BF2CC90000014910225B
:103400000A60704710ED00E072B6404080F311880A
:10341000BFF36F8FBFF34F8F30BF62B6BFF36F8FB5
:10342000704700BF72B6494081F31188BFF34F8FD8
:1034300020BF80F3118862B6704700BF2DE9F041CC
:1034400082B000AF0446D0F800E0D0F804C086682F
:103450006D468AB06B4613F1100200F0EB80142128
:103460008AB10846042903DDDFF8F881C3F8148027
:10347000082801DDC3F818E00C2801DDC3F81CC0E2
:10348000102800DD1E62132940F3D7804FF0140C82
:103490003AB10521397100217971B971F9717868F2
:1034A000186100216FF300016FF341016FF3820196
:1034B0006FF3C501012363F38811CCF30A0C6CF39D
:1034C00053216FF31F5100236748FFF7CBFAAD4636
:1034D000D4F80CE0D4F810C066696D468AB06B462B
:1034E00013F1100200F0AC8014218AB108460429BF
:1034F00003DDDFF87881C3F81480082801DDC3F804
:1035000018E00C2801DDC3F81CC0102800DD1E6285
:10351000132940F398804FF0140C3AB1052139710A
:1035200000217971B971F9717868186100216FF320
:1035300000016FF341016FF382016FF3C5010123B5
:1035400063F38811CCF30A0C6CF353216FF31F5112
:1035500000234548FFF786FAAD46E6696D4688B018
:103560006B4613F1100271D00C214AB108460429B0
:1035700003DDDFF8FCC0C3F814C0082800DD9E613D
:103580000B2966DD4FF00C0C3AB103213971002193
:103590007971B971F9717868186100216FF30001D0
:1035A0006FF341016FF382016FF3C501012363F3F0
:1035B0008811CCF30A0C6CF353216FF31F510023D5
:1035C0002948FFF74FFAAD46A46988B06B4613F15E
:1035D000100241D00C213AB10846042901DD254DE5
:1035E0005D61082800DD9C610B2938DD0C243AB1AF
:1035F0000321397100217971B971F9717868186105
:1036000000216FF300016FF341016FF382016FF34B
:10361000C501012363F38811C4F30A0464F3532141
:103620006FF31F5100231048FFF71CFA0837BD46FF
:10363000BDE8F0816FF0004112E76FF01B0C27E747
:103640006FF0004151E76FF01B0C66E76FF000412F
:103650008BE76FF01B0C97E76FF00041BBE76FF053
:103660001B04C4E72CC9000008C500005CC90000A9
:103670008CC900009CC90000002807DB00F01F0275
:10368000400901239340024A42F82030704700BFAE
:1036900000E100E0002808DB4901C9B200F1604008
:1036A00000F5614080F80013704700F00F004901F9
:1036B000C9B2014B1954704714ED00E04209054BA3
:1036C00053F8222000F01F00012303FA00F01040FD
:1036D000704700BF00E100E030BFFFF7FDBF00BF53
:1036E00008B50B4B0B4A22F07F029A60BFF34F8F55
:1036F000BFF36F8FD3F8882022F47002C3F88820BC
:1037000004F016FA05F0D8F900F09EFF04F06EFA06
:1037100000ED00E0000000000A4A9368C3F8A8002A
:1037200009490968C3F8AC1008494B6843F0805355
:103730004B60002383F31188BFF36F8F9368D3F836
:10374000AC007047880F0020B8D2000000ED00E008
:1037500013498A684FF030001044EFF3098C80E879
:10376000F01F202080F31288BFF36F8F0D4F4FF0B2
:1037700000668A698A603E60D2F8A8000023C2F819
:10378000A83080F3118804B5104601F00DF8BDE8AB
:10379000044002F1300090E8F01F8CF30988704774
:1037A000880F002004ED00E01EF0040F0CBFEFF3C3
:1037B0000880EFF30980816911F8021C0229FFD00B
:1037C00001B506F09AFD01BD10B4A2F120040E4926
:1037D00042F8081C21F0010142F8081C42F8203C84
:1037E000019B42F81C3C029B42F8183C039B42F8A8
:1037F000143C4FF0807342F8043C04650023C0F889
:10380000A83010BC704700BF25910000104B9B688A
:10381000BBB110F1160F0BD0D3F89820A2F1400CD9
:10382000844510D8824210D98A4207D800207047B8
:10383000D3F898208A4201D800207047D3F8980026
:10384000704700207047002070470020704700BF7D
:10385000880F002008B50D461446084B986000F00C
:10386000A3FF204685F30988002163B681F3118800
:10387000BFF36F8F0022002305F054FC880F002057
:1038800001B572B60B4A506900281EBF0021516174
:1038900008F0CFF962B6EFF30580A0F110004FEA0F
:1038A000C0000549014409C99847BDE801400349E2
:1038B00008470000880F0020D8C20000C13800006F
:1038C000044B99689869884203D003494FF08052AD
:1038D0000A607047880F002004ED00E081690D4BFD
:1038E0005A6942F480725A61BFF34F8FBFF36F8FF2
:1038F00031F8021C5A6922F480725A61BFF34F8F6B
:10390000BFF36F8F4DF60273994201D000207047CC
:103910000120704700ED00E010B588B000241C7055
:1039200002F07F44B4F17F4F32D102F00C04082C36
:1039300005D012F0080F28D0084608B010BD154B6E
:10394000079302238DF8043000248DF805408DF88C
:1039500006408DF80740019B0693214664F3000161
:1039600064F3410164F3820164F3C501012363F34D
:103970008811082363F3532164F31F51234606AAD9
:103980000548FFF76FF82046D7E701221A70D4E701
:103990000020D2E7CCC9000008C500002DE9F041A5
:1039A000ACB000AF054688461446B94BFB61022314
:1039B0003B7100237B71BB71FB717A68BA61194658
:1039C00063F3000163F3410163F3820163F3C50113
:1039D000012262F38811082262F3532163F31F511D
:1039E00007F11802AB48FFF73DF8AB4B9B6A13F4A5
:1039F000805F2BD11626A84B9B6A13F4006F47D12A
:103A0000A54B9B6A13F4007F64D1A34B9B6A13F40C
:103A1000806F40F0D380A04B9B6A13F4807F40F00E
:103A2000EF809D4B9B6A13F4005F40F00D819A4A32
:103A3000936A43F47F4393620121284606F07AFC9F
:103A400020703046B037BD46BDE8F081934B7B63B4
:103A500002233B7100237B71BB71FB717A683A636F
:103A6000194663F3000163F3410163F3820163F3D9
:103A7000C501012262F38811082262F3532163F326
:103A80001F5107F130028348FEF7ECFF1726B2E71B
:103A9000834BFB6402233B7100237B71BB71FB7181
:103AA0007A68BA64194663F3000163F3410163F372
:103AB000820163F3C501012262F38811082262F3D7
:103AC000532163F31F5107F148027248FEF7CAFF02
:103AD000182695E7734B7B6602233B7100237B71AD
:103AE000BB71FB717A683A66194663F3000163F3B0
:103AF000410163F3820163F3C501012262F388117E
:103B0000082262F3532163F31F5107F160026148F9
:103B1000FEF7A8FF604B986B9B6A13F4004F49D0E7
:103B20006E4688B06B4613F1100211D00C2152B1D1
:103B30008C46042903DDDFF870E1C3F814E0BCF122
:103B4000080F08DD98610B2931DD4FF00C0C04E003
:103B50006FF00041EBE76FF01B0C3AB103213971B4
:103B600000217971B971F9717868186100216FF3DA
:103B700000016FF341016FF382016FF3C50101236F
:103B800063F38811CCF30A0363F353216FF31F51DE
:103B900000234048FEF766FFB546B8F1000F0BD092
:103BA0003D4A936A23F40043936219262DE76FF090
:103BB0001B0CD2E7192628E7192626E73B4BFB67A3
:103BC00002233B7100237B71BB71FB717A68BA677A
:103BD000194663F3000163F3410163F3820163F368
:103BE000C501012262F38811082262F3532163F3B5
:103BF0001F5107F178022748FEF734FF1A260AE71B
:103C00002B4BC7F8AC3002233B7100237B71BB7197
:103C1000FB717A68C7F8A820194663F3000163F3C3
:103C2000410163F3820163F3C501012262F388114C
:103C3000082262F3532163F31F5107F1A8021548CC
:103C4000FEF710FF1B26F2E61A4BC7F8943002234A
:103C50003B7100237B71BB71FB717A68C7F89020C0
:103C6000194663F3000163F3410163F3820163F3D7
:103C7000C501012262F38811082262F3532163F324
:103C80001F5107F190020348FEF7ECFE1C26CEE61A
:103C9000F8C9000008C5000000ED00E010CA0000EF
:103CA00024CA000038CA000054CA00006CCA0000D0
:103CB00088CA0000A0CA000000B5ADB0964B0793BB
:103CC00002238DF8043000238DF805308DF806307E
:103CD0008DF80730019A0692194663F3000163F3E9
:103CE000410163F3820163F3C501012262F388118C
:103CF000082262F3532163F31F5106AA8748FEF797
:103D0000B1FE874B9B6A13F0007F26D11D20844BA8
:103D10009B6A13F0807F45D1814B9B6A13F4002F7F
:103D200065D17F4B9B6A13F4802F40F085807C4BDC
:103D30009B6A13F4003F40F0A480794B9B6A13F414
:103D4000803F40F0C380764A936A6FEA03436FEA8C
:103D5000134393622DB05DF804FB724B0D93022365
:103D60008DF8043000238DF805308DF806308DF87D
:103D70000730019A0C92194663F3000163F3410185
:103D800063F3820163F3C501012262F38811082203
:103D900062F3532163F31F510CAA6048FEF762FEE1
:103DA0001E20B4E7604B139302238DF804300023E8
:103DB0008DF805308DF806308DF80730019A129293
:103DC000194663F3000163F3410163F3820163F376
:103DD000C501012262F38811082262F3532163F3C3
:103DE0001F5112AA4D48FEF73DFE1F2094E74F4B8E
:103DF000199302238DF8043000238DF805308DF8D7
:103E000006308DF80730019A1892194663F30001C5
:103E100063F3410163F3820163F3C501012262F39D
:103E20008811082262F3532163F31F5118AA3B48FB
:103E3000FEF718FE212074E73D4B1F9302238DF8F7
:103E4000043000238DF805308DF806308DF80730EA
:103E5000019A1E92194663F3000163F3410163F373
:103E6000820163F3C501012262F38811082262F323
:103E7000532163F31F511EAA2848FEF7F3FD2220A9
:103E800055E72C4B259302238DF8043000238DF841
:103E900005308DF806308DF80730019A24921946C6
:103EA00063F3000163F3410163F3820163F3C5012E
:103EB000012262F38811082262F3532163F31F5138
:103EC00024AA1648FEF7CEFD232036E71A4B2B9383
:103ED00002238DF8043000238DF805308DF806306C
:103EE0008DF80730019A2A92194663F3000163F3B3
:103EF000410163F3820163F3C501012262F388117A
:103F0000082262F3532163F31F512AAA0348FEF7E4
:103F1000A9FD242017E700BFD0CA000008C5000093
:103F200000ED00E0E8CA0000FCCA000018CB000069
:103F300038CB000060CB00007CCB000000B589B01E
:103F400000230B70124A079202228DF804208DF88C
:103F500005308DF806308DF80730019A0692194623
:103F600063F3000163F3410163F3820163F3C5016D
:103F7000012262F38811082262F3532163F31F5177
:103F800006AA0448FEF76EFD09B05DF804FB00BF09
:103F9000A8CB000008C5000090B583B000AF0F2982
:103FA00023DC2F4C103900233B7102237B718AB034
:103FB000EC461CF110021AD0122022B1042802DDB6
:103FC000284BCCF8143000233B7002237B70E2B105
:103FD0000346082801DDCCF818400C2B01DDCCF895
:103FE0001C100CF1200300210DE01F4CDAE76FF0EC
:103FF0000040E2E701F1080404EB070E1EF808ECAC
:1040000003F801EB01310129F4D9112824DD122331
:104010004AB10421397100217971B9710121F97115
:104020007868CCF8100000216FF300016FF34101B4
:104030006FF382016FF3C501012060F38811C3F3B0
:104040000A0363F353216FF31F5100230748FEF760
:1040500009FD0C37BD4690BD6FF01B03D8E700BFCC
:10406000CCCB000000CC0000E4CB000008C5000071
:104070002DE9F043A7B000AF044688461546B94B7A
:10408000FB6102233B7100237B71BB71FB717A687A
:10409000BA61194663F3000163F3410163F38201DE
:1040A00063F3C501012262F38811082262F35321F0
:1040B00063F31F5107F11802AB48FEF7D3FCAB4B7B
:1040C0009B6A13F0100F41D11026A84B9B6A13F086
:1040D000080F5DD1A54B9B6A13F0020F7AD16FF0E8
:1040E0001509A24B9B6A13F0010F40F0EA809F4B29
:1040F0009B6A13F0200F40F006819C4B9B6A13F0E3
:10410000100F04D1994B9B6A13F0020F05D0974B07
:104110005B6813F4006F40F01A81944B9B6A13F0B4
:10412000200F04D0914A536A23F4005353628F4AFC
:10413000936A43F0FF0393620121204606F0FAF8E8
:10414000287030469C37BD46BDE8F083884B7B63C2
:1041500002233B7100237B71BB71FB717A683A6368
:10416000194663F3000163F3410163F3820163F3D2
:10417000C501012262F38811082262F3532163F31F
:104180001F5107F130027848FEF76CFC11269CE7BE
:10419000784BFB6402233B7100237B71BB71FB7185
:1041A0007A68BA64194663F3000163F3410163F36B
:1041B000820163F3C501012262F38811082262F3D0
:1041C000532163F31F5107F148026748FEF74AFC89
:1041D00012267FE7684B7B6602233B7100237B71CD
:1041E000BB71FB717A683A66194663F3000163F3A9
:1041F000410163F3820163F3C501012262F3881177
:10420000082262F3532163F31F5107F160025648FD
:10421000FEF728FC554BD3F834909B6A13F0800FBF
:1042200049D06E4688B06B4613F1100211D00C21B4
:1042300052B10846042903DDDFF840C1C3F814C0B9
:10424000082809DDC3F818900B2931DD4FF00C0C5C
:1042500004E06FF00041EBE76FF01B0C3AB1032173
:10426000397100217971B971F9717868186100218B
:104270006FF300016FF341016FF382016FF3C5012A
:10428000012363F38811CCF30A0363F353216FF323
:104290001F5100233448FEF7E5FBB546B8F1000F87
:1042A0000DD0324A936A23F080039362132618E7F5
:1042B0006FF01B0CD2E76FF01509132611E71326D8
:1042C0000FE72F4BFB6702233B7100237B71BB7110
:1042D000FB717A68BA67194663F3000163F3410121
:1042E00063F3820163F3C501012262F3881108229E
:1042F00062F3532163F31F5107F178021A48FEF766
:10430000B1FB1426F3E61F4BC7F8943002233B7130
:1043100000237B71BB71FB717A68C7F89020194646
:1043200063F3000163F3410163F3820163F3C501A9
:10433000012262F38811082262F3532163F31F51B3
:1043400007F190020848FEF78DFB1526D5E62146B9
:104350004846FFF75BFA00283FF4DFAE80F3098898
:104360000226DAE614CC000008C5000000ED00E0EB
:104370002CCC000024CA000060CC000078CC0000E7
:1043800090CC0000A0CA0000F0B59BB000AF06467C
:104390000D46804BFB6102233B7100247C71BC7194
:1043A000FC717B68BB61214664F3000164F3410149
:1043B00064F3820164F3C501012363F388110823C8
:1043C00063F3532164F31F51234607F11802724827
:1043D000FEF748FB2C70714BDC6A14F002040CD120
:1043E0006E4BDB6A002B2ADB6C4BDC6A14F08044DA
:1043F00046D120466C37BD46F0BD694B7B66022333
:104400003B7100247C71BC71FC717B683B6621466A
:1044100064F3000164F3410164F3820164F3C501B4
:10442000012363F38811082363F3532164F31F51BD
:10443000234607F160025848FEF714FBD9E7594BB1
:10444000FB6402233B7100237B71BB71FB717A68B3
:10445000BA64194663F3000163F3410163F3820117
:1044600063F3C501012262F38811082262F353212C
:1044700063F31F5107F148024748FEF7F3FAB8E724
:10448000494B7B6302233B7100237B71BB71FB7142
:104490007A683A63194663F3000163F3410163F3F9
:1044A000820163F3C501012262F38811082262F3DD
:1044B000532163F31F5107F130023748FEF7D2FA58
:1044C0003046FFF70BFA002840D034686D4688B0BC
:1044D0006B4613F110020FD00C214AB10846042993
:1044E00003DDDFF8C8C0C3F814C0082807DD9C61ED
:1044F0000B2928DD0C2404E06FF00041EDE76FF09C
:104500001B043AB10321397100217971B971F97134
:104510007868186100216FF300016FF341016FF3B8
:1045200082016FF3C501012363F38811C4F30A0309
:1045300063F353216FF31F5100231748FEF792FADC
:10454000AD46346855E76FF01B04DAE7134B9B6AFE
:1045500013F0FF0F0FD1114B9C6A14F47F4411D15B
:104560000E4B9B6AB3F5803FFFF443AF3046FFF735
:10457000A3FB04463DE72A4601213046FFF778FDBC
:10458000044636E72A4601213046FFF707FA04467B
:104590002FE700BFB0CC000008C5000000ED00E030
:1045A000C8CC0000ECCC0000FCCC00001CCD00000E
:1045B00030B58BB01A4B5C68C4F30804002383F356
:1045C0001188BFF36F8F0DF12603FFF7A5F905469C
:1045D0000DF12702214605F0AFFE9DF827300BB103
:1045E0000BB030BD04462022294601A805F043FF48
:1045F0009DF826304BB1089BC3F308025AB96FEA05
:1046000053236FEA4323089305E0089B23F4FF73C9
:1046100023F00103089301A9204605F062FEDFE7BD
:1046200000ED00E0024A536943F010035361704704
:1046300000ED00E0EFF30880EFF3098101B5724669
:10464000FFF7B6FF01BD00BF002206E003F00F0335
:104650000949194420230B7601322F2A0ADC53B270
:10466000002BF3DB03F1604303F56143202183F862
:104670000013F1E7704700BFFCEC00E00020134995
:104680000870002080F31488BFF36F8FFDF7CCFE15
:1046900000200F490860BFF34F8F0E4880F3088851
:1046A00000F030F8202080F311880B484FF40461AB
:1046B000401880F30988EFF314800221084380F347
:1046C0001488BFF36F8FFFF70BF80000D50F0020A1
:1046D00094ED00E00021002040130020084BD3F8A7
:1046E0009000C0F30720002306E0054AC2F8983086
:1046F0000021C2F8A01001338342F6DB704700BFEF
:1047000000ED00E010B572B6002484F31388FFF7C3
:10471000E5FF234608E003F120010E4A4FF0FF3089
:1047200042F821000133DBB2072BF4D9002308E063
:1047300003F16001074A4FF0FF3042F821000133D6
:10474000DBB2072BF4D962B6BFF34F8FBFF36F8F85
:1047500010BD00BF00E100E008B50A4B9B68834232
:1047600002D004F05DF908BDEFF30583002BF8D00B
:10477000054B5A6842F080525A605A6A22F400424D
:104780005A62EEE7880F002000ED00E008B5034B09
:10479000034A0121034805F024FE08BD0000022061
:1047A0000000002038CD000008B5D0F89830403B1C
:1047B0000448036040234360034B8360012105F0FC
:1047C00014FE08BD5409002000000B15084AC2F869
:1047D00098000B6823F01F03034343F01003C2F853
:1047E0009C308B6843F00103C2F8A030704700BFD3
:1047F00000ED00E0F0B583B000AF0446072805D80F
:10480000FFF7E4FF20460C37BD46F0BD6D4688B08B
:104810006B4613F110022FD00C213AB1084604293F
:1048200001DD184E5E61082800DD9C610B2926DD44
:104830000C243AB10321397100217971B971F971F0
:104840007868186100216FF300016FF341016FF385
:1048500082016FF3C501012363F38811C4F30A04D5
:1048600064F353216FF31F5100230748FEF7FAF852
:10487000AD466FF01500C6E76FF00041CDE76FF071
:104880001B04D6E748CD000000C500002DE9F04725
:1048900082B000AF814688469A46164600250FE052
:1048A0006FF0004124E06FF01B042DE02146F0B2D0
:1048B00005F078FD064610F1160F47D00136013598
:1048C000454543DA05EB450409EB84046268002A98
:1048D000F5D0BAF1000FE9D0204605F052FD0028CE
:1048E000E4D16E4688B06B4613F11002D8D00C218B
:1048F0003AB10846042901DD174C5C61082800DD47
:104900009D610B29CFDD0C243AB1032139710021BF
:104910007971B971F9717868186100216FF300013C
:104920006FF341016FF382016FF3C501012363F35C
:104930008811C4F30A0363F353216FF31F5100235B
:104940000648FEF78FF8B5466FF015063046083773
:10495000BD46BDE8F08700BF70CD000000C5000077
:1049600010B5034C01232278FFF790FF207010BD93
:10497000D10F002008B50023094A1278FFF786FFFF
:1049800010F1160F0AD0034606E0064AC2F8983026
:104990000021C2F8A0100133072BF6DD08BD00BFCF
:1049A000D10F002000ED00E0044B0522C3F8942055
:1049B000BFF34F8FBFF36F8F704700BF00ED00E074
:1049C000BFF35F8F024B0022C3F89420704700BFF3
:1049D00000ED00E038B50E4B1D68082D15D8FFF727
:1049E000EFFF002409E00A4B596804EB44029300EE
:1049F00019442046FFF7EAFE0134A542F3D8054BDF
:104A00001D70FFF7D1FF002038BD4FF0FF30FBE7EE
:104A100094CD0000D10F0020014B1860704700BFFB
:104A20000C0000200239012904D808B5034B1B688B
:104A3000984708BD4FF0FF30704700BF0C000020C2
:104A40000FB400B585B006AB53F8042B03930021D7
:104A5000009102210348FDF78FF905B05DF804EBE2
:104A600004B0704717A50000BFF34F8F0549CA680F
:104A700002F4E062044B1343CB60BFF34F8F00BFDF
:104A8000FDE700BF00ED00E00400FA054FF0200252
:104A9000EFF3118382F31288BFF36F8F044A012171
:104AA000C2F8401583F31188BFF36F8F0020704761
:104AB00000E0014030B108B5034B800143F0010331
:104AC000984708BD704700BFA0C500000048704768
:104AD000B4090020034BC01A8010034B03FB00F005
:104AE000704700BF74090020B76DDBB638B50546C6
:104AF0000C46FFF7EFFF01464022034805F0C6FDD4
:104B000001462846A04738BD18C2000030B583B022
:104B100005460C46FFF7DEFF01464023009323467F
:104B2000054A064805F0CCFD011E01DB03B030BD8F
:104B30002846A047FAE700BF09A7000018C20000F6
:104B400008B510B101280DD008BD0021084805F0B6
:104B500026FD836813F0070FF6D10021044805F005
:104B600083FDF1E70121024805F07EFDECE700BF7F
:104B700018C2000010B582B04FF02003EFF311848B
:104B800083F31288BFF36F8F144A136843F0020156
:104B9000116013F0010F09D1002384F31188BFF3D2
:104BA0006F8FB3B905F0B8FD02B010BD0DF107026B
:104BB00001214FF0804005F0CFFC9DF80730012B1C
:104BC00001D00023E9E7FFF781FF05F03AFD01235B
:104BD000E3E70021024805F047FDE5E7C4090020AE
:104BE00018C2000010B54FF02003EFF3118483F3D7
:104BF0001288BFF36F8F084A136823F00201116017
:104C000013F0010F04D084F31188BFF36F8F10BD30
:104C100005F08CFDF7E700BFC409002070B582B035
:104C20000546012807D14FF08043D3F81C3403F028
:104C30000303012B4CD006F0C3FF044618B9284BE0
:104C40001B78002B39D14FF02003EFF3118683F34B
:104C50001288BFF36F8F012424B94FF080430222E2
:104C6000C3F8082301AA00214FF0804005F074FC2E
:104C700020B1019B012B26D0012D24D0FCB1304660
:104C8000FEF7D0FB4FF08043D3F81835002BE9D165
:104C90004FF08043D3F80431002BE3D04FF0804332
:104CA0000022C3F80421D3F804210122C3F81825F7
:104CB0000C49C1F880219A60D4E70026CCE7012096
:104CC00005F03EFDDEE72CB186F31188BFF36F8F50
:104CD00002B070BD4FF080430222C3F80423F7E70F
:104CE000D50F002000E100E000B585B0CDF800D080
:104CF000CDF804D000230293012303936B46074AA7
:104D000005F0FAFC002805DB4FF4804200236846DA
:104D100003F0A6F905B05DF804FB00BF6DA7000025
:104D200070B5064600220121104605F0F1FA11483F
:104D300001F07AFD104B984219D106F0F5FC0024E1
:104D4000012C12D82146304605F029FC05462146A3
:104D5000304605F031FC094904F0CFFA002805DBA4
:104D60000123AB601C44E4B2EAE7002070BD6FF0A1
:104D70000400FBE7414B00000000AD0BC8CD000074
:104D800008B5C1B2014805F017FC08BD18C2000003
:104D900010B50446104B0121BFF35B8F53E8002F81
:104DA00043E800100028F9D1BFF35B8F1AB1631EEE
:104DB000012B0DD910BD094805F0FEFB0849002361
:104DC0004B608B60CB6001238B6004F0B3FAEEE79D
:104DD0002046FFF723FFEDE77009002018C200000E
:104DE0006009002010B504460A2806D0E1B2064842
:104DF00083685B689847204610BD034883685B68FA
:104E00000D219847F2E700BF60C2000010B5044CC6
:104E10002046FFF701FE2046FCF788FC10BD00BFCE
:104E2000E54D000008B5054806F09FFE18B1FFF7F4
:104E3000EDFF002008BD6FF01200FBE760C200002C
:104E400028B1012801D1034870470020704702486B
:104E5000704700BF30C2000048C20000F0B585B006
:104E60000E46194643681B7B06F01F0545EA4315AD
:104E7000B2F5001F22D00746144600230193029387
:104E8000104605F055FD8DF804007B689968F140E7
:104E900011F0010F02D1B4F1A07F14D0002301AAB8
:104EA0001946284601F064FF1B4B984231D101217D
:104EB000284602F0BDF8002005B0F0BD284602F0FB
:104EC000E9F80020F8E705F01F036A09012A14D069
:104ED0004FF0A04203F5E07352F8233013F0010FB6
:104EE000DCD10DF10F01284602F046F80B4B984239
:104EF00005D00DF10F030293D0E7094AEAE70DF15F
:104F00000F0002F08DF8044B9842F2D06FF00B00C6
:104F1000D2E76FF01500CFE70000AD0B0400AD0B3A
:104F2000000300502DE9F04186B00E461446D0F83B
:104F3000048098F80C3001F01F0545EA43150DF187
:104F40001701284602F018F8074614F4403F3AD0FB
:104F50000021039104910B4603AA284601F008FFA3
:104F6000334B984261D19F423DD014F4003F49D069
:104F70000DF10301204605F060FC074650BB9DF88B
:104F800003308DF8043014F4803F0CBF012300235C
:104F90008DF80530204605F093FC8DF8060014F4DA
:104FA000002F25D0D8F804200123B340C2F80835DB
:104FB000002201A9284601F06FFF1D4B984209D03D
:104FC0006FF0150706E0284602F086F8184B9F425E
:104FD00004D00027384606B0BDE8F0819DF81700E0
:104FE00002F016F8F5E79DF8170002F011F8BCE79B
:104FF00014F4802FDCD0D8F804200123B340C2F889
:105000000C35D5E7204605F05BFC8DF80800002341
:105010001A4602A9284601F0ABFE054B984201D181
:105020000027D7E76FF01507D4E76FF01507D1E732
:105030000000AD0B08B501F0E1FF08B1002008BD8C
:1050400001F0B2FF084B98420AD10021074801F055
:105050008DFF00220521062005F05AF90020EEE719
:105060006FF00400EBE700BF0000AD0B69A9000082
:1050700008B543681B68D3F80805D3F80C1502F08F
:1050800075FA044B984201D1002008BD6FF00F0063
:10509000FBE700BF0000AD0B10B588B044680269A3
:1050A00011F0010F3AD1C1F34203012B27D0022B9B
:1050B0002ED01C4B079302238DF8043000238DF86B
:1050C00005308DF806308DF80730019A06921946A2
:1050D00063F3000163F3410163F3820163F3C501EC
:1050E000012262F38811082262F3532163F31F51F6
:1050F00006AA0D48FDF7B6FC6FF0150006E0236820
:105100004FF0CC70C3F824055162002008B010BDE8
:1051100023684FF0CD60C3F82405F5E76FF0150064
:10512000F4E700BFA0CE0000E0C400002DE9F04F7E
:1051300089B000AF38600D4616469A46D0F8049004
:10514000D0F810804FF0FF324FF0FF33404602F0AE
:1051500087FF08F1100B00220023584602F080FF61
:10516000484602F0BBF900247C601BE012F0010FFE
:1051700040F0E680202207F10C01484602F0DCF9FD
:10518000714B98423ED14FF480420023584602F0C2
:1051900067FF7860002840D1D8F820306A4A9342EF
:1051A0007ED10134B44280F0C08004EB4403990006
:1051B00005EB83031A7A12F0080F40F0B380002247
:1051C000FA603A617A61BA61FA611A7A02F0010012
:1051D000387387F80DA05B683B616B58BB6112F0B8
:1051E000020F0DD1731EA342C0D9631C03EB43030E
:1051F00005EB83031B7A13F0040FB7D14022BAE703
:105200000022B8E70B33984203D06FF004037B60B1
:105210008BE06FF00F037B6087E06D4688B06B46D4
:1052200013F1100236D00C213AB10846042901DDF1
:10523000464E5E61082800DD9C610B292DDD0C24A3
:105240003AB10321397200217972B972F972B868E2
:10525000186100216FF300016FF341016FF38201C8
:105260006FF3C501012363F38811C4F30A0464F3E7
:1052700053216FF31F5100233548FDF7F3FBAD4673
:10528000484602F03BF93868FFF7F2FE6FF004037E
:105290007B604AE06FF00041C6E76FF01B04CFE788
:1052A0006D4688B0694611F1100235D0102062B108
:1052B0000646042803DDDFF89CC0C1F814C0082EA0
:1052C00000DD8B610C2E00DDCC610F2827DD102363
:1052D0003AB10420387200207872B872F872B86857
:1052E000086100216FF300016FF341016FF3820148
:1052F0006FF3C501012060F38811C3F30A0363F360
:1053000053216FF31F5100231148FDF7ABFBAD464E
:105310006FF004037B6008E06FF00040C7E76FF0B8
:105320001B03D5E76FF085037B60484602F0E6F883
:10533000404602F071FE78682437BD46BDE8F08F24
:105340006FF085037B60F0E70000AD0BB4CE00008A
:10535000E0C40000E0CE000008B50378012B0CD0BB
:10536000022B0DD013B1084B0B6201E0074B0B620F
:1053700001F1100002F050FE08BD054B0B62F7E78B
:10538000044B0B62F4E700BF0100AD0B0000AD0B56
:105390000100AE0B0200AE0BB0B582B000AF044608
:1053A000406823692F4A00F1080102F02FF82E4BC4
:1053B000984203D100200837BD46B0BD21686D4634
:1053C00000233B7102237B7188B06C4614F11002FC
:1053D00011D00E201AB1042801DD244B6361002393
:1053E0003B7002237B709AB1082800DDA16104F1B3
:1053F0001C0300210AE06FF00040EBE701F1080C0C
:10540000BC441CF808CC03F801CB01310129F5D9C3
:105410000D2824DD0E2342B1032139710021797159
:10542000B9710121F9717868206100216FF30001E1
:105430006FF341016FF382016FF3C501012060F347
:105440008811C3F30A0363F353216FF31F51002341
:105450000748FDF707FBAD466FF00F00ABE76FF0B5
:105460001B03D8E7595300000000AD0B08CF000024
:10547000E0C4000069B900F01F014009012806D00E
:105480004FF0A04201238B40C2F80C357047084A08
:10549000F8E700F01F014009012806D04FF0A042B4
:1054A00001238B40C2F808357047014AF8E700BF76
:1054B000000300502DE9F04F83B080468A469346A2
:1054C00000242CE04FF0FF3535E0CBF80C550126D9
:1054D000019631467F2D20D0B1F1FF3F40F0908002
:1054E00058F8092012F4005F02D00126002301932E
:1054F000C2F3C11205F01F016D09012D00F0848077
:105500004FF0A040019B43EA460343EA820343EA8B
:10551000072301F5E07240F822300134E4B254452B
:1055200074D24FEA840958F82430C3F3432703F0B8
:105530007F057F2DC6D01B0C0C2B69D801A252F819
:1055400023F000BFCB5400007955000087550000C0
:1055500093550000A1550000AF550000BB55000059
:10556000115600001156000011560000115600009F
:10557000C9550000D9550000CBF8145500260196F6
:105580004FF0FF31A6E7CBF80855012601963146CA
:10559000A0E7CBF81055002601964FF0FF3199E7B0
:1055A000CBF80855002601230193314692E7CBF84A
:1055B0000C550126019600218CE7CBF810550026EA
:1055C00001964FF0FF3185E7CBF8085567B100260B
:1055D00001964FF0FF317DE7CBF80C5557B100260F
:1055E00001964FF0FF3175E73E4601974FF0FF31CE
:1055F00006276FE73E4601974FF0FF31062769E720
:105600002846FFF737FF6BE704487BE7002001E0FF
:105610006FF0850003B0BDE8F08F00BF00030050BD
:1056200070B5C36B03EB830C0CF1800C4FEA2C2C90
:105630000388A1EB031290F904E00CFB0EFE2A4C48
:1056400084FB0E134FEAEE7ECEEB631EA2EB6E02DE
:10565000B0F802E090F905100CFB01F184FB015356
:10566000C917C1EB631190F906300CFB03F384FBFF
:105670000365DB17C3EB65130CFB03F39D1184FB80
:105680000565DB17C3EB6513194401F5804101FB88
:105690000EFE4FEAAE2E0EFB02F2C17990F90830F1
:1056A0000CFB03F384FB0354DB17C3EB641303EB22
:1056B000C1131B11911301FB01F1891201FB03F3CB
:1056C00002EB63039B124FF47A7202FB03F3074968
:1056D000B1EB233F04DB1A13002A02DA002200E0B8
:1056E000024A026370BD00BF1F85EB51A086010016
:1056F00038B5044690F92700C3179D0045EA907518
:105700004FEA800C1CEB000C43EB050340F23C50CD
:105710001CEB000C43F10003154850F82150ACFB82
:1057200005C005FB03004FEA1C4C4CEA004C051475
:10573000D20312F17F4263EB030312EB0C0243EB43
:1057400020430C4850F82100A0FB0CC100FB0511C0
:105750004FEA5C2C4CEAC15C500840EAC3705D1013
:1057600010EB0C0045EB6121FBF798F8606338BD46
:105770000CD00000CCCF000010B50246B1F5C87FB8
:1057800001D94FF4C87192F90C3003EB830303EB9A
:105790008303214880FB0340DB17C3EBA01C92F975
:1057A000093003F54473B2F90A0000F5163000F22F
:1057B000991000FB01F1194880FB014EC917C1EB9C
:1057C000EE0101F5481180FB01E0C917C1EBA00112
:1057D00001FB03F303EBD373581000EB0C2092F89A
:1057E0002530043390FBF3F092F9263003EB83125B
:1057F00003EB420303F5803390FBF3F0FA3800EB40
:10580000001040003230064B83FB0023C017C0EB72
:105810006310C0B210BD00BFD34D621067666666EC
:105820001F85EB5103690D3910294FD8DFE801F0CE
:1058300009234E364E4E4E4E4E4E4E4E4E4E4E4E10
:10584000490000B5996A234880FB01ECC917C1EBF8
:105850006C111160996A80FB0130CB17C3EB6013A8
:10586000642000FB131342F2107101FB03F3536039
:1058700000205DF804FBD86A1749A1FB00C080092D
:105880001060D86AA1FB00139B094FF47A7101FBE9
:10589000130301FB03F3536000207047186B0E499C
:1058A000A1FB00C080091060186BA1FB00139B09CD
:1058B0004FF47A7101FB130301FB03F353600020E3
:1058C00070475B6B13600020506070476FF01500ED
:1058D000704700BF1F85EB51D34D6210F0B583B008
:1058E00000AF05460669406883681B689847041E38
:1058F00055DB6B689B685C68012306F14002D02190
:105900002846A047041EC0F2988096F84030612BCC
:1059100040F09A80284605F088F9041EC0F28D8078
:105920006B689B689B680122722128469847041E79
:10593000C0F283806B689B689B68002275212846B3
:105940009847041E79DB6B689B689B681022712165
:1059500028469847041E70DB4FF4A0713046FFF7CD
:105960000BFF02466B689B689B685A212846984744
:10597000041E62DBC52005F0E2F802466B689B68F6
:105980009B68642128469847041E56DB6B689B6819
:105990009B68552274212846984704464DE02968A3
:1059A0006E4600233B7102237B7188B06D4615F172
:1059B00010021BD00E201AB1042801DD404B6B6190
:1059C00000233B7002237B709AB1082800DDA96197
:1059D00005F11C03002101290BD801F1080CBC447E
:1059E0001CF808CC03F801CB0131F4E76FF000405C
:1059F000E1E70D2825DD0E2342B103213971002195
:105A00007971B9710121F9717868286100216FF30A
:105A100000016FF341016FF382016FF3C5010120B3
:105A200060F38811C3F30A0363F353216FF31F512B
:105A300000232448FDF716F8B54620460C37BD462E
:105A4000F0BD6FF01B03D7E76C4688B0694611F1D3
:105A500010022FD00C203AB10546042801DD1A4E61
:105A60004E61082D00DD8B610B2826DD0C233AB139
:105A70000320387100207871B871F8717868086176
:105A800000216FF300016FF341016FF382016FF3A7
:105A9000C501012060F38811C3F30A0363F35321A6
:105AA0006FF31F5100230748FCF7DCFFA5466FF09A
:105AB0008504C2E76FF00040CDE76FF01B03D6E727
:105AC00098CF0000B8C40000B0CF000070B59CB003
:105AD00006464568286806F048F8C8B10DF1070287
