:10000000403D0020CD59000085DC000085590000EE
:100010008559000085590000855900000000000046
:10002000000000000000000000000000F94A00008D
:100030008559000000000000A14A00008559000019
:10004000D14B0000D14B0000D14B0000D14B000040
:10005000D14B0000D14B0000D14B0000D14B000030
:10006000D14B0000D14B0000D14B0000D14B000020
:10007000D14B0000D14B0000D14B0000D14B000010
:10008000D14B0000D14B0000D14B0000D14B000000
:10009000D14B0000D14B0000D14B0000D14B0000F0
:1000A000D14B0000D14B0000D14B0000D14B0000E0
:1000B000D14B0000D14B0000D14B0000D14B0000D0
:1000C000D14B0000D14B0000D14B0000D14B0000C0
:1000D000D14B0000D14B0000D14B0000D14B0000B0
:1000E000D14B0000D14B0000D14B0000D14B0000A0
:1000F000D14B0000D14B0000D14B0000D14B000090
:1001000053B94AB9002908BF00281CBF4FF0FF317E
:100110004FF0FF3000F00CB8ADF1080C6DE904CEE3
:1001200000F008F8DDF804E0DDE9022304B07047D0
:10013000704700BF2DE9F04786468C460846089E6A
:10014000154674461946002B40F0C2808542B2FA2B
:1001500082F245D94AB1C2F1200300FA02FC2EFA1C
:1001600003F3954043EA0C0C94404FEA154EA8B2B5
:10017000BCFBFEF8230C0EFB18CC08FB00F943EA8D
:100180000C43994528D9EB1808F1FF3704D299455B
:1001900002D9A8F102072B44A3EB0903A4B2B3FBD5
:1001A000FEFC0EFB1C330CFB00F044EA0344A042AF
:1001B00014D92C190CF1FF3304D2A04202D9ACF1AE
:1001C00002032C44241A43EA07401EB1D440002302
:1001D00034607360BDE8F0874746DDE76346F1E7CA
:1001E00092BB431B01214FEA154EAFB2B3FBFEFC9D
:1001F000200C0EFB1C330CFB07F840EA0343984528
:1002000062D9EB180CF1FF3004D2984502D9ACF159
:1002100002002B44A3EB0803A4B2B3FBFEFC0EFBCD
:100220001C330CFB07F744EA0344A7424ED92C19B0
:100230000CF1FF3304D2A74202D9ACF102032C44E3
:10024000E41B43EA0040C0E7C2F1200320FA03F1B7
:10025000954090402EFA03F303434FEA154EAFB298
:10026000B1FBFEFC0EFB1C10190C0CFB07F841EA5D
:100270000041884504FA02F422D969180CF1FF30D4
:1002800004D2884502D9ACF102002944A1EB08014F
:100290009BB2B1FBFEFC0EFB1C110CFB07F743EA03
:1002A00001439F420ED9EB180CF1FF3104D29F425B
:1002B00002D9ACF102012B44DB1B41EA004192E779
:1002C0006046E3E76146F7E76046A3E76346B7E7C2
:1002D000834206D916B9002108467BE7C6E900E04B
:1002E000F9E7B3FA83F78FB9834201D3724508D88F
:1002F000BEEB020460EB030301209C461EB9002103
:1003000068E73846FAE7C6E9004CF8E7C7F1200C81
:10031000BB4022FA0CF41C432EFA0CF120FA0CF329
:10032000B84001434FEA14490EFA07F5B3FBF9F858
:100330001FFA84FE09FB18300B0C08FB0EFA43EA87
:1003400000439A4502FA07F240D9E31808F1FF305A
:1003500004D29A4502D9A8F102002344A3EB0A0370
:1003600089B2B3FBF9F809FB183308FB0EFE41EA2A
:1003700003418E452CD9611808F1FF3304D28E4514
:1003800002D9A8F10203214443EA0040A0FB0298ED
:10039000A1EB0E014145CE46434602D306D14D4561
:1003A00004D2B9EB020E68EB04030138002EA6D08C
:1003B000B5EB0E0261EB030101FA0CFC22FA07F324
:1003C0004CEA0303F940C6E9003198E74046C5E727
:1003D0004346D9E770B590B0044633E0A3689B6903
:1003E000002B48D0694620469847051E43DB2A4625
:1003F000694630480CF014FC0646854240DC314624
:100400002D480BF08AFD002E3FD1A3685B6A13B123
:1004100020469847B0B14022694626480CF05BFC64
:100420000646002835D0A3685B69002B38D0024609
:100430006946204698470546AE4234DC29461F48A7
:100440000BF06BFD20460BF088FC88B320460BF0C8
:100450007BFC68B3A3685B6B1BB120469847002800
:10046000D3D01449CA694B6849695B1AD21A3F2A2A
:10047000B4D94022B2E712480BF04FFD0025B6E791
:10048000291A10480BF049FDB9E720460BF04AFC49
:10049000BBE70D480BF041FD20460BF049FCD1E7CE
:1004A0006FF05705C8E7711B08480BF036FDC5E72C
:1004B00010B070BD500C002084FF0000D8FF000079
:1004C00058FF000074FF0000A4FF0000C8FF0000F8
:1004D00010B582B00023009332480EF019FEA0B18F
:1004E000002002F003FFA0B92F4B4FF48062DA61C5
:1004F0002E4A1A600022DA609A605A609A615A6144
:100500001A612B480BF009FD0CE02A480BF005FDA1
:1005100037E029480BF001FD33E040F6CD400021E3
:100520000BF008F96A4604211E480BF028FC009BDA
:10053000002BF2D021480BF0F0FC012208211948D1
:100540000BF014FC0146F8B90122102115480BF0FC
:100550000DFC0146E0B964200BF01AFC01AA012150
:1005600010480BF00CFC0146B0B115480BF0D5FC5F
:100570000C4C0022134920460BF0C6FB20460BF022
:10058000DDFB002002B010BD0F480BF0C6FCDBE71E
:100590000E480BF0C2FCDEE701990D480BF0BDFCE4
:1005A000E6E700BF64FC0000500C0020700C002047
:1005B0002C000100F8FF0000140001003C000100C5
:1005C00084000100D5030000440001006400010024
:1005D000A80001002DE9F04F91B005920293134657
:1005E00002F004020092C3F3C20210F0030301936D
:1005F00040F0238207468A460132041D002847D076
:1006000027B1E31B0433534500F21A82029B5D1E9F
:10061000019B04930693039300264FF0FF3B4FF09A
:100620000408C1460FB1029B2360531E0793002AA2
:1006300040F35F81059B13F0020226D00120E11BED
:100640008B081AB1B1F5007F80F0008203990F2961
:1006500000F2FF81002F00F06481DBB201F1400263
:100660006A4402F8103C02F820BC002800F05581D2
:1006700063F07F0301F140026A4402F8103C049BDE
:1006800001330493039B01330393043400223DE0C0
:1006900001F0070A5444CAF1080AB1E7002634E021
:1006A000002632E0002630E04FF00808C1462CE07A
:1006B00025292AD10BF1010B01264FF00408C14670
:1006C00023E04729ECD82A2912D32A39C9B20120BC
:1006D00000FA01F14FF6DA70014216D111F0625FB3
:1006E00040F0C48011F0010F40F08E8000260CE035
:1006F000252903D10BF1FF3B002606E001D9002696
:1007000003E0202901D02329CCD11D466B1C697838
:10071000002900F01D81002ECAD07A29BED84C29AC
:10072000CFD34C392E2961D801A050F821F000BF59
:100730000B070000ED070000ED070000ED070000CB
:10074000ED070000ED070000ED070000ED070000D9
:10075000ED070000ED070000ED070000ED070000C9
:1007600001080000ED070000ED070000ED070000A4
:10077000ED070000ED070000ED070000ED070000A9
:10078000ED0700006D080000ED0700000108000003
:10079000010800006D0800006D0800006D080000F1
:1007A0000B07000001080000A9060000ED0700008B
:1007B0000B070000ED070000CB0800000108000057
:1007C000CB080000ED070000ED070000D508000091
:1007D000F907000001080000ED070000ED07000028
:1007E00001080000ED070000F107000000268CE77B
:1007F0004FF00408C14688E74FF00408C14684E77B
:1008000029786C2924D000264444013CC8F1000119
:100810000C40204627B1E11B4944514500F21381A9
:10082000002A5DD1B9F1040F00F08A80B9F1080FF8
:1008300040F012811A99073121F0070101F10800F7
:100840001A90D1E900010FB1C4E9000108345CE756
:1008500013F8021C6C2904D000264FF00408C1468E
:10086000D2E700264FF00808C146CDE729784C2989
:100870001BD01A99073121F0070101F108001A90E5
:10088000D1E90001073424F0070447B1E61B08361C
:10089000564514D82D784C2D14D0C4E900010834E5
:1008A00000264FF00808C1462FE71A99073121F0BA
:1008B000070101F108001A90D1E90001E2E76FF0A9
:1008C0001B00B7E0C4E90001E9E700264FF0040887
:1008D000C14699E7324600264FF00408C14693E727
:1008E00004461A9A111D1A9112680292079A1D461F
:1008F00098E65F4B029A9A4204D35E4B9A420AD31F
:10090000002300E00023002B7FF494AE059B03F04E
:100910000202002093E60123F5E7069B01330693CC
:10092000B0E610B10AF1010AACE6009B13B10AF17E
:10093000020AA7E602980DF02EFA831C9A44A1E65B
:100940001A99081D1A90096807B121600434DCE681
:10095000E31BB3F5806F80F0828097B100223A608C
:100960009B083B70009B83B1069BFB70049BBB7094
:100970001BBB019DDDF80C90DDF810B0DDF80880A0
:100980003BE05344A3F1080054E0069B7B70EDE785
:1009900001339842EDD903F140026A4412F8101C69
:1009A00012F9102C002AF3DA01F07F01E21B013268
:1009B000524557D804F8011BEAE7019B0398E8E782
:1009C000009B3BB305F140036B4413F8203C04F853
:1009D000013B019EE31B33440133534545D805F1E8
:1009E00040036B4413F8103C04F8013B3246414687
:1009F00020460DF0E3F934440135A94519D9BBF17E
:100A0000000FDDD005F140036B4413F9103C002BBF
:100A1000D6DAF1E705F140036B4413F8103C57F8C0
:100A20002380002247F8232040460DF0B4F9461CED
:100A3000D0E7E01B11B0BDE8F08F6FF00D00F9E7D3
:100A40006FF01B00F6E76FF01B00F3E76FF0150087
:100A5000F0E76FF01500EDE76FF01500EAE76FF0D3
:100A60001500E7E76FF01B00E4E76FF01B00E1E71C
:100A70009CFB0000AC1201002DE9F04F97B000AFD5
:100A80008346BA613B61D7F88030C3F3C0033B6251
:100A9000F96051B19BF80260B14656B1D7F8803089
:100AA00013F0010F11D1002304E00BF095F9F86069
:100AB000F0E700239BF803207A6242B1D7F8802048
:100AC00012F0020F22D1002202E00123F2E70022FD
:100AD00002B9EBB19BF80050AA00BA60DBF8042021
:100AE0007A610BEB8505BA69F2B1002B40F01081F9
:100AF000B9F1000F00F01B81D7F8803013F0040F1C
:100B000040F019810020F861064605E10122DFE787
:100B1000BB691BB13A69F96858469847FC6820469A
:100B20005C37BD46BDE8F08FFC682BBBB9F1000F08
:100B300038D0D7F8803013F004033B6127D04D4400
:100B400000233B6123E00444013501364E451AD2AF
:100B50002A7800235BF822201946B8690BF051F976
:100B6000BAF1000FEFD0D7F888309845EBD22AF8C9
:100B7000180008F10108E6E70026C7F81C80B04617
:100B8000D7F884A0E2E7C7F81080D7F81C80D7F820
:100B9000803003F00503FB604FF0000AA146C7F860
:100BA0001CB09FE0C7F81090F1E700253B6A7BB9C5
:100BB000002D79D0D7F8803013F0010F79D1FB6880
:100BC000002B6FD10223A9EB030988E00125EDE793
:100BD000594678690BF05CF90028E9D06C4600238F
:100BE00087F82C30022387F82D308AB0694611F13E
:100BF000100237D012251AB1042D01DDB24B4B6122
:100C0000002387F82830022387F829306ABB112D8A
:100C100045DD122362B1042087F82C00002087F8FC
:100C20002D0087F82E00012087F82F00F86A086150
:100C30006FF300086FF341086FF382086FF3C50884
:100C4000022161F38818C3F30A0363F353286FF397
:100C50001F58002341469D4801F096F8A546A9F18A
:100C600002093CE06FF00045C5E72B46082D01DD89
:100C7000786988610C2B01DDC1F81CB001F12003FB
:100C8000002009E000F1300C07F1280EF4441CF8B4
:100C900030CC03F801CB01300128F3D9B7E76FF06E
:100CA0001B03B7E701238EE7D7F8803013F0020F5C
:100CB00015D0002322461946B8690BF0A2F8D7F8E0
:100CC000843053B13B69D7F88820934205D2D7F8D6
:100CD000842022F8130001333B61013881440AF17A
:100CE000010A35467B6A9A4510D22E4616F802BB99
:100CF0006B78FA6952F82340754B9C42FFF455AF6C
:100D0000744B9C42FFF462AF00254FE74C4606E768
:100D100007F144000023FB6118B14A4629460DF053
:100D20004DF84D444FF00008C7F804901EE0002035
:100D3000F8610646F0E7FE6107F134000026EBE7B4
:100D400000253B6A33BB002D3BD0D7F8803013F031
:100D5000010F26D0731C06F1300207F12801561846
:100D600006F8149CDEB208F1010825467B6A984516
:100D70004AD22C4614F802AB95F801905BF8293062
:100D8000534A9342DCD3534A934201D30025D8E718
:100D90000125D6E7514678690BF07AF80028D2D0C1
:100DA000E1E7D7F8803013F0040FDCD0FA69531C68
:100DB000303207F128010A4402F8249CDBB2FB61BF
:100DC000D1E7D7F8803013F0020F09D0731C06F179
:100DD000300207F12801561806F8149CDEB2C2E76B
:100DE000F869431C00F1300107F128028A1802F863
:100DF00024AC02460232D2B2FA6107F1580252FA2A
:100E000083F303F8249CAEE7D7F804909BF80030F6
:100E100087F854309BF80130334487F85530D7F8C1
:100E2000803013F0020F0ED1FB69C3F3470387F83C
:100E30005730D7F8803013F0010F06D113F0040FAC
:100E40003FD1002302E00023F1E7002387F856306A
:100E5000DBF800003863786DCBF80000D7F810801D
:100E60004246B9685846D7F818A0D047041EFFF686
:100E700056AE386BCBF80000C7F810804246F969CF
:100E800007F13400D047002857DB04EB0008B968AD
:100E900049447B6A01EB4301D7F810904A46FB684E
:100EA000591A2846D047041EFFF639AE08EB040550
:100EB0004FF000087E62C7F820B05646D7F884B0DD
:100EC0001FE0FB69C2E700BFC000010054FE000044
:100ED0009CFB0000AC1201004FF0000A4A460121C1
:100EE00007F12C00B047002829DB05445346224671
:100EF000494630460AF085FF002822DB054408F108
:100F000001087B6A984511D208F1300307F12802E5
:100F1000134413F8143C87F82C303A6A52F82340F3
:100F2000BBF1000FD8D03BF818A0D7E73A690021F1
:100F30000846BB6998472C46F1E50446EFE50446B0
:100F4000EDE50446EBE500BF014B1860704700BFBC
:100F5000B000002010B586B0044603900491002133
:100F60000591009103A9064800F024F9059B049A15
:100F7000934201DA0022E254059806B010BD00BF8A
:100F8000E3BE00002DE9F04383B004460846154651
:100F9000238B13F0080F05D103F0070600230093FD
:100FA000019355E0012909D043F02003238385F301
:100FB0001188BFF36F8F03B0BDE8F08343F01003D7
:100FC0002383F4E720460BF020FA43E0D4F8149092
:100FD0004A46694620460BF031FA4FF00008238B51
:100FE00003F00707B74269D0A268002A66D0012241
:100FF00043F00803238385F31188BFF36F8F002A22
:1010000064D1009B2BB14B463A46694620460BF013
:101010008EFAB8F1000F02D034492046C0474FF095
:101020002003EFF3118583F31288BFF36F8F238BB7
:1010300023F008032383238B13F0100F4CD023F0ED
:10104000100323830120268B06F007060028AED06C
:101050000228B7D00028AAD0013804282AD801A332
:1010600053F820F0CD0F0000B510000079100000FB
:101070008D100000A11000002369D3F80080062124
:1010800020460BF098F94FF00009A8E72369D3F840
:101090000480042120460BF08EF94FF000099EE7F2
:1010A0002369D3F80880052120460BF084F94FF01E
:1010B000000994E74FF00008C14690E7009A0AB192
:1010C000002295E7B8F1000F92D1B4E74A463946BD
:1010D00020460BF078F994E713F0200F04D023F0AA
:1010E000200323830220AEE70020ACE75DC50000AB
:1010F00084460846012226E09CF8003043F00403B1
:101100008CF80030F2B101301CE09CF8003043F064
:1011100008038CF80030F5E79CF8003043F010032A
:101120008CF80030EEE79CF8003043F020038CF898
:101130000030E7E79CF8003043F040038CF80030C3
:10114000E0E7002242B30378203B102BF9D801A13D
:1011500051F823F019110000431100004311000061
:10116000271100004311000043110000431100004B
:10117000431100004311000043110000431100001F
:101180000B11000043110000F91000004311000092
:1011900043110000351100009CF8003003F04403B7
:1011A000442B00D070479CF800306FF386138CF806
:1011B0000030F7E72DE9F04F91B006460D46914615
:1011C0000393002499F80000002800F0B982252834
:1011D00008D009F101092946B0470028C0F2B182C0
:1011E0000134EFE7002304930593069307930893D4
:1011F0000993494606A80BF014FC02909DF819309B
:1012000013F0010F00F09780039B1A1D03921F68D3
:10121000002FC0F288809DF8193013F0040F00F001
:101220009C80039B1A1D0392D3F800A0BAF1000F13
:10123000C0F28A800023079308939DF81A3003F0C8
:1012400007039DF81910C1F3C301012B00F08E8034
:10125000022B00F0D380042B00F02481032B00F03C
:101260003B819DF8188018F0030B40F03B819DF8FE
:101270001B30253B532B00F2CA81DFE813F04001FD
:10128000C801C801C801C801C801C801C801C80116
:10129000C801C801C801C801C801C801C801C80106
:1012A000C801C801C801C801C801C801C801C801F6
:1012B000C801C801C801C801C801C801C801C801E6
:1012C000C801C801C801C801C801C801C801C801D6
:1012D000C801C801C801C801C801C801C801C801C6
:1012E000C801C8018101C801C801C801C801C801FD
:1012F000C801C801C801C801C8015E016701C80171
:10130000C801C801C8016701C801C801C801C801F6
:10131000BD018101A101C801C8014D01C8018101C0
:10132000C801C80181019DF8183043F004038DF80D
:1013300018307F426FE79DF91830002B02DB4FF029
:10134000FF3768E7079F66E79DF819306FF34103A1
:101350008DF819304FF0FF3A6CE713F0020F02D00E
:10136000DDF820A066E74FF0FF3A63E7CB1E042BC1
:1013700004D8DFE803F00B1D29353500039B1A1D47
:1013800003921B68DA170493059206E0039B1A1D6B
:1013900003921B68DA1704930592012928D00229C9
:1013A0007FF45FAFBDF91030DA170493059258E768
:1013B000039B073323F0070303F108020392D3E9E9
:1013C0000023CDE90423E8E7039B073323F0070359
:1013D00003F108020392D3E90023CDE90423DCE7FB
:1013E000039B1A1D03921B68DA1704930592D4E736
:1013F0009DF91030DA170493059232E7CB1E042BC7
:1014000004D8DFE803F00B1F35414100039B1A1D90
:1014100003921B680493002305931EE09DF81B3084
:10142000632B07D0039B1A1D03921B6804930023B0
:10143000059312E0039B1A1D03921B68049300237B
:1014400005930AE0039B073323F0070303F1080227
:101450000392D3E90023CDE9042301291CD00229FA
:101460007FF4FFAEBDF81030049300230593F8E637
:10147000039B073323F0070303F108020392D3E928
:101480000023CDE90423E8E7039B1A1D03921B68A0
:10149000049300230593E0E79DF8103004930023A4
:1014A0000593DEE608290BD0039B073323F00703DF
:1014B00003F108020392D3E90023CDE90423D0E627
:1014C000039B073323F0070303F108020392D3E9D8
:1014D0000023CDE90423C4E6039B1A1D03921B6875
:1014E0000493BEE6029F3B464A46294630460BF02F
:1014F0003EFB0028C0F225810444B94662E6294635
:101500002520B0470028C0F21C810134D8460DF1D7
:101510003E0A4FF000097FE0DDF81090BAF1000FAD
:1015200007DB514648460CF03FFC09EB000AD84661
:1015300072E048460CF02FFCF7E7049B8DF828304A
:10154000D8460DF1290A0DF1280965E018F0080FB9
:1015500005D118F0100804D04FF0200801E04FF03A
:101560002B08049A059B002B02DB0492059308E0EC
:10157000524263EB4303049205934FF02D0800E0C1
:10158000D8460DF13E0300930AAB06AADDE904013B
:101590000BF07EFA8146BAF1000F6CDB0DF13E03D1
:1015A000A3EB09039DF818206FF386128DF818201D
:1015B0009A4563D9AAEB030307930DF13E0A2BE08A
:1015C000049828B9D846DFF880A1AAF1050923E0DC
:1015D0000DF13E0300930AAB06AA00210BF058FA66
:1015E00081469DF81A3043F010038DF81A307823A5
:1015F0008DF81B30D846CEE72246049906A80BF09A
:1016000097FAD8460DF13E0A4FF0000904E0D8469B
:101610000DF13E0A4FF00009B9F1000F00F08D8086
:10162000AAEB0903B8F1000F00D001339DF81A208E
:1016300012F0100F25D0023307990B4412F0400F1F
:1016400001D0089A1344002F31DDFF1A9DF818309D
:1016500013F0040F2BD113F0400F17D0B8F1000F87
:1016600017D029464046B04700286ADB0134D846E7
:101670004FF0300B0FE00DF13E0ACDE70DF13E0AC1
:10168000CAE712F0080FD7D00133D5E74FF0200B8F
:1016900001E04FF0300B3B465F1E002B07DD294673
:1016A0005846B04700284CDB01343B46F4E7B8F11C
:1016B000000F05D029464046B047002841DB0134E1
:1016C0009DF81A30C3F30012C3F3C0031A4305D0C8
:1016D00029463020B047002833DB01349DF81A300A
:1016E00013F0100F06D029469DF81B00B0470028C4
:1016F00027DB0134079B03F1FF38002B07DD294668
:101700003020B04700281CDB01344346F3E7534642
:101710004A46294630460BF02AFA002811DB0444D9
:10172000002F07DD29462020B047002809DB0134BF
:10173000013FF5E7DDF8089044E5DDF8089041E564
:10174000204611B0BDE8F08F7D01010006F01CBEFF
:1017500038B505460B4C00E010340B4B9C420FD2C1
:1017600063685B79002BF7D0294620460BF0DEFD3D
:101770000028F1D023681B68294620469847EBE7EC
:1017800038BD00BFD4FE0000F4FE000070B5064670
:101790000D46084C04E02A4631462046984710344E
:1017A000054B9C4204D223689B69002BF3D1F6E7DA
:1017B00070BD00BFD4FE0000F4FE00002DE9F04132
:1017C000074605460AE007EA0807144B03EB061331
:1017D0005B6804221968204600F0A8FAD5B195FA92
:1017E000A5F6B6FA86F60D4C04EB06140123B340B9
:1017F0006FEA030825EA0305237B002BEED03301B3
:10180000064AD3581B69002BDDD020469847002894
:10181000E4D1D8E73846BDE8F08100BFD4FE00002F
:101820002DE9F04180460F46204BBFF35B8F53E814
:10183000005F6A1C43E800210029F8D1BFF35B8FE9
:10184000002D2FD11A4C002607E063680422196886
:10185000204600F06BFA01361034164B9C4213D22E
:10186000237B002BF8D02368DB680BB12046984718
:1018700023681B69002BE8D0204698470028E4D055
:101880000123B3401D43E6E7B8F1000F0BD055B17B
:101890002846FFF793FF0546002FF8D00A200BF0EB
:1018A0004BFDF4E700252846BDE8F08184100020B8
:1018B000D4FE0000F4FE000008B5064B186018B115
:1018C000054B1B68092B00DC08BD044809F04CFAE5
:1018D000FAE700BF7810002080100020540200209A
:1018E00008B5024809F040FA08BD00BF54020020C4
:1018F00030B589B000220F490F480EF08EF80F4D19
:1019000000220023CDE90623002404940E23039330
:101910000294019400940A4B4FF4407209492846FE
:101920000DF07EFC0849284609F032F8204609B03F
:1019300030BD00BFE118000008080020500300205F
:101940008D1C0000C023002080010100014B53F8D2
:10195000200070479C01010048B108B5054A10609D
:10196000054B1960084600F0AFFC002008BD6FF081
:1019700015007047B40000207410002008B5054B16
:101980001B781BB1034B01221A7008BD024809F0F5
:10199000EBF9F7E794230020540200200D4BBFF32E
:1019A0005B8F53E8001F013143E80012002AF8D191
:1019B000BFF35B8F00B97047074BBFF35B8F53E8F2
:1019C000001F013943E80012002AF8D1BFF35B8FF2
:1019D000F1E700BF7C10002080100020064B0020A3
:1019E0000146BFF35B8F53E8000F43E80012002A63
:1019F000F9D1BFF35B8F70477C10002038B5FFF73B
:101A0000EDFF0546094C00E01034094B9C420BD217
:101A100063685B79002BF7D023685B68002BF3D0F9
:101A2000294620469847EFE738BD00BFD4FE0000A6
:101A3000F4FE0000034B18680028D4BF00200120EA
:101A4000704700BF7C10002010B5044C04492046AC
:101A50000BF0BBFA034B1C6010BD00BFD40100208B
:101A6000880101007010002008B50023064A137099
:101A7000064A1360064A13604FF400410548FFF719
:101A80006BFFFFF7E1FF08BD952300207C100020CD
:101A90008010002031D3000008B5014601480BF04A
:101AA00061FC08BDD401002008B502480BF071FBB1
:101AB00008BD00BFD401002008B50146024B1868DC
:101AC0000BF056FC08BD00BF7010002008B502489E
:101AD0000BF052FC08BD00BFD401002010B582B04D
:101AE00000220023CDE90023284B187808B902B062
:101AF00010BD68460BF058FC044688B1244BBFF378
:101B00005B8F53E8001F013943E80012002AF8D127
:101B1000BFF35B8F2046FFF71BFE2046FFF7CCFF8D
:101B2000FFF788FF58B91B4A1368516813F57A7399
:101B300041F1000113605160FFF7C8FFD7E70DF0D6
:101B400029FF4A0142EAD06243011B1A62EB0102FB
:101B5000920042EA93729B001B1842EB0102D200F2
:101B600042EA5372C3F3103343EA4243D20B0948AB
:101B7000016840685B1A62EB000240F2E9318B4277
:101B800072F10002CFD3FFF739FFCCE79423002096
:101B900080100020000800200F4B1B7803B1704715
:101BA00010B500210120FFF73BFE0C4C00E0103483
:101BB0000B4B9C4208D263685B79002BF7D02368FB
:101BC0009B6820469847F2E7FFF788FF0028FBD183
:101BD000014B01221A7010BD95230020D4FE000095
:101BE000F4FE000010B582B01B4BBFF35B8F53E8CF
:101BF000002F511C43E800100028F8D1BFF35B8F81
:101C0000164B1B7863B9164B1B68BBB1C2B10A2ACD
:101C100014D114480DF00DFF134809F0A5F80DE09C
:101C20004FF02003EFF3118483F31288BFF36F8F1B
:101C3000FFF754FF84F31188BFF36F8F02B010BD1C
:101C400000220023CDE900234FF400420023054881
:101C500009F0E2FFF2E700BF80100020952300208A
:101C600078100020080800205402002010B5044617
:101C7000044B1B689847A060214603480BF098FB73
:101C800010BD00BFB4000020D40100202DE9F041B8
:101C900000210846FFF7C4FD804640B140F2676668
:101CA000002709F0A7FDFFF707FE002515E04FF01C
:101CB000FF364FF0FF37F4E74046FFF77FFD8046E1
:101CC00070B94FF0FF364FF0FF3709E02C4632462F
:101CD0003B46094809F06CF82546B8F1000FEBD1F6
:101CE000FFF7FCFE04460028F6D1002DEED00021BF
:101CF0000846FFF74BFDEAE7540200200248034B79
:101D0000C01AC008704700BFD4FE000034FE0000B7
:101D100010B50C46FFF7F2FFA04203D9024B53F86F
:101D2000340010BD0020FCE734FE000008B5094B6C
:101D3000C31A1B110133D0F804C08CF80430436877
:101D40009A7143681960436801225A71FFF716FEC1
:101D500008BD00BFD4FE000000B589B0059206930F
:101D60000023079362B1074A0C9B02930B9B0193DC
:101D70000A9B009305ABFEF77FFE09B05DF804FBFC
:101D80000022F1E7C1D300002DE9F04F8BB004AF82
:101D900005461E468846C1F34A24002C00F089807F
:101DA00091460022FA603A617A6104230293FB189B
:101DB00001930A23009307F10C0321464846FEF7DE
:101DC0005BFEB0F5006F58D3D9F804106D460023C0
:101DD0003B7302237B738AB004AC14F1100217D05A
:101DE00012201AB1042801DD3B4B636100233B70D4
:101DF00002237B70CAB10346082800DDA1610C2BC9
:101E000002DD40F2FF73E36104F1200300210AE0E8
:101E10006FF00040E5E701F118063E4416F8186C33
:101E200003F8016B01310129F5D9112822DD1223B4
:101E300042B10421397300217973B9730121F97317
:101E4000F868206100216FF300016FF341016FF327
:101E500082016FF3C501022060F38811C3F30A0306
:101E600063F353210023C1F313011C480BF0D5FA8F
:101E7000AD462DE06FF01B03DAE760F35328C0F3A3
:101E80000A0A0AEB1850173020F007008008FFF705
:101E900003FE8346B0B104230293FB1801930A2387
:101EA0000093534600F1100221464846FFF754FFC5
:101EB00008E004EB1154173424F00704A008FFF7DE
:101EC000EBFD834633464246294658460BF08EFAD0
:101ED0001C37BD46BDE8F08FBC0101006CFE000060
:101EE0000EB400B584B0014605AB53F8042B039340
:101EF000002000900348FFF75DF904B05DF804EBA3
:101F000003B0704751D5000030B585B011F0440FD3
:101F100005D01A4B1C6834B9002005B030BD1849F3
:101F2000FFF7DEFFF9E7174B1968B2FBF1F1B1FBE0
:101F3000F4FC154AA2FB0C32D20A4FF4616E0EFB80
:101F400012CE124BA3FB0E535B0904FB1C114FF482
:101F50007A7C0CFB01F1B1FBF4F504FB15110CFBD1
:101F600001F1B1FBF4F102910195C3EB0311AEEB6A
:101F7000810100910649FFF7B3FFCEE78C100020E6
:101F8000FC01010088100020C5B3A29189888888CF
:101F90000802010061B108B52AB1064A52F82320AF
:101FA00012B9054A00E0044A0449FFF799FF08BD49
:101FB000704700BFAC020100240201002C020100A6
:101FC0002DE9F041054690461E46069F81B9002442
:101FD0002EB1324610492846FFF782FF0444B7B1BC
:101FE000B8F1000F0DD0079B042B13D00B4909E06B
:101FF0000B4B079A53F822200A49FFF771FF04465A
:10200000E6E706493A462846FFF76AFF04442046B9
:10201000BDE8F0810449F5E7440201003402010003
:10202000C00201003C020100300201002DE9F04F26
:1020300085B005460C46164603939DF8408001F096
:10204000020B01F0010AC1F3C0090BF0B7F9D8B1D6
:10205000024612492846FFF743FF0746BBF1000F2F
:1020600014D14246514628460BF032FACDF804808E
:102070000F9B00930E9B324649462846FFF7A0FF70
:10208000384405B0BDE8F08F0027E7E7039A214602
:102090002846FFF739FF0744E3E700BF4802010085
:1020A00011F0100F0BD108B511F0200F03D0044927
:1020B000FFF716FF08BD0349FFF712FFFAE7704765
:1020C0003C0C01004C0201002DE9F04105460F4691
:1020D000164698460699FFF7E3FF0024444505DAC3
:1020E00023492846FFF7FCFE0134F7E7002409E006
:1020F0001F492846FFF7F4FE0BE01E492846FFF76C
:10210000EFFE01340F2C0CDC002C02DD14F0070F65
:10211000EED0B442F1D23A5D17492846FFF7E0FE0F
:10212000EFE716492846FFF7DBFE002409E01049D7
:102130002846FFF7D5FE0BE011492846FFF7D0FEF1
:1021400001340F2C12DC002C02DD14F0070FEED04E
:10215000B44206D23A5DA2F120035E2BECD92E22C6
:10216000EAE703492846FFF7BBFEE9E7BDE8F0814F
:102170004002010058020100500201005C0201000F
:10218000600201002DE9F04184B004469DF828501A
:102190000B9F0D9E95B9012B1BD017484FF00008DF
:1021A00027B13B462246154909F042FEAEB9EDB9CA
:1021B00020460BF0C0F904B0BDE8F0810295019310
:1021C00000920B4600220E99FFF730FF80460C4824
:1021D000E6E70B484FF00008E2E70E9B009343460A
:1021E00032460C9920460BF08BF9E0E72A460E990F
:1021F00020460BF079F9DBE789D50000C1D4000057
:1022000051D500002DE9F04186B005460C46174631
:10221000D1F808800E88C6F382160878C0F3C20091
:102220004B6833B1114A9B1A43F3CF01002918DAE6
:102230000023224652F8101BC1F34A216088C0F3E4
:102240000B10541801B900220497039002940192D4
:102250000096002241462846FFF794FF06B0BDE8ED
:10226000F081FFF755FD0346E3E700BF34FE0000B1
:1022700070B582B00446056842F20F738B4228BFE6
:102280000B460E4A0521684609F055FE064663686E
:102290005B680B220A4928460BF005F963685B6806
:1022A0003246694628460BF0FEF863685B681B22DD
:1022B000044928460BF0F7F802B070BDC00D0100CC
:1022C0008002010064020100074B01221A6004E051
:1022D0004008054A13685B001360044B9842F7D826
:1022E000034B1860704700BF8810002040420F0069
:1022F0008C100020034B01221A70034B034A1A6012
:10230000704700BF96230020B8100020BC100020AA
:10231000014B196000207047A410002008B518B9BF
:10232000074B00221A7008BD064B1B7823B141F2FF
:1023300088300DF033FBF6E705200BF034F9F2E7B7
:10234000962300209723002038B504460A4B01222B
:102350001A700A4B1B782BB938BD651E2046FFF753
:10236000DDFF2C46002008F017F80028F4D0024BBF
:102370001B78002BF1D1EFE7962300209723002054
:10238000F8B506460D4604270DE02A4631460020E2
:1023900007F09EFF044614E03846FFF7D5FFDCB98E
:1023A000114B1B78C3B1114B1B78002BEDD108F0FA
:1023B00003F82A463146002007F08AFF044608F059
:1023C00007F8002CE8D1084B1B78002BE7D0013F21
:1023D0003846FFF7A3FFE2E714B9034B1B7803B9B4
:1023E0002C462046F8BD00BF9623002097230020EE
:1023F00008B5034B01221A7002480BF09CF808BD87
:10240000972300200003010008B50248FFF730FFC2
:1024100008BD00BF0003010010B50C46044B18684E
:10242000FFF794FA03460F2221460248984710BD51
:10243000A41000200003010070B506460D460024DC
:1024400005E0315D044883685B6898470134AC421D
:10245000F7D3284670BD00BF7CFC0000014B19601B
:1024600000207047EC10002008B5034B01221A70C1
:1024700002480BF060F808BD982300204C030100CF
:1024800008B50248FFF7F4FE08BD00BF4C03010089
:1024900010B50C46044B1868FFF758FA03460F2294
:1024A00021460248984710BDEC1000204C03010063
:1024B00070B505464FF02003EFF3118683F31288C1
:1024C000BFF36F8F0E4B1C680DE0A2683AB10D4B45
:1024D0001B7C03EB43030C4911F823009047234670
:1024E000246804B123B12CB1002DEED06268EDE771
:1024F0001C46F8E786F31188BFF36F8F70BD00BFED
:102500000811002050230020FC10002008B5064BC5
:1025100023B1417800780BF0B8FC08BD002383F3A9
:102520001188BFF36F8FF8E78BDE000070B50E4B9C
:102530001C7C21460D480BF04DF800B970BD6500BC
:1025400004EB44000A4E06EB8000FFF7DFFF00209B
:10255000FFF7AEFF2B19990006EB830300227250A0
:102560005A609A60EAE700BF502300201011002053
:10257000FC100020F8B50546384B1C7C4FF02003BA
:10258000EFF3118683F31288BFF36F8F04EB4402DD
:10259000334B13F82230002B39D0324B03EB820C33
:1025A0002F4F4FEA820E07EB820393E807008CE877
:1025B0000700002307F80E3086F31188BFF36F8FF2
:1025C00004EB4403274A12F82330002B44D0B5F122
:1025D000FF3F2BD108F0D6FD0120FFF769FF214610
:1025E00021480BF013F8214B5BB11E4A04EB440366
:1025F00002EB830304EB4404597812F824000BF037
:102600003CFCFFF793FF08F0A9FF0120F8BD01464D
:10261000204600F031F80028CED004EB4401114BE5
:1026200003EB810307C883E80700C5E704EB440216
:102630000C4B03EB82039868410CC0030C4BC01891
:102640000C4A4FF0000341F10001FDF759FD012153
:10265000281A05F0FFFDBDE70020D7E75023002032
:10266000F0100020FC100020101100207BDE000084
:102670003F420F0040420F002DE9F04182B00E466C
:1026800001A900F045F8441E24B207E0B6F1FF3F6F
:1026900033D08044B04530D9013C24B2002C2BDB30
:1026A000019B04EB440203EB8205697813F82200D6
:1026B0000AF0BFFF0028EFD16868410CC003114F3A
:1026C000C019114A4FF0000341F10001FDF718FD58
:1026D0008046AB68590CDB03D8190B4A4FF0000356
:1026E00041F10001FDF70CFD084B1B68B3F1FF3F02
:1026F000CCD08342CAD8CFE70025284602B0BDE837
:10270000F08100BF3F420F0040420F00B8000020A0
:1027100008B9024B0B600020704700BF6003010046
:10272000072801D900207047024B034483F8BB10EF
:102730000120704714110020072801D9002070479C
:10274000024B034493F8BB00704700BF14110020F4
:1027500010B50378C3F341130A33064C54F8233001
:1027600023B19847002803DB012010BD0020FCE7BF
:102770000020FAE7141100200A30024B43F8201021
:10278000704700BF14110020014B5862704700BF12
:1027900014110020136800221A705A7001221A7056
:1027A000064A92F8C3203AB1022242F001021A709E
:1027B00002230B60012070470022F6E7141100206D
:1027C00030B545884FEA152EAEF10403DBB2012B7C
:1027D00021D9EDB2BEF1070F1FD8114B5B6A00245F
:1027E00000E00344187840B193F801C0F445F8D1F3
:1027F000A54201D00134F4E7012068B11360BEF1B5
:10280000020F02D01B780B6006E09A78DB7842EA70
:1028100003230B6000E0002030BD0020FCE700BF78
:102820001411002038B50C460D4B5B6A156800E0AA
:1028300013441A788AB193F801C0BCF1040FF7D1A0
:1028400093F802C0B0F804E0F445F1D16046FFF718
:1028500073FF28700120206000E0002038BD00BF19
:1028600014110020034B93F8BA00003818BF012060
:10287000704700BF14110020074B5B6A00E013444F
:102880001A783AB159780229F9D119798142F6D9E1
:1028900001207047002070471411002030F08003A1
:1028A00018D01049104B994219D210B403E02431CA
:1028B0000D4B99420CD20C6A00230A7F9A42F6D93A
:1028C00004EBC3021279824206D00133DBB2F4E793
:1028D000002002E001207047012010BC704700205A
:1028E000704700BF2C03002050030020014B98616B
:1028F000704700BF14110020014BD861704700BF22
:1029000014110020F8B506460A4D0B4B9D420FD21C
:102910002F6A002401E00134E4B22B7FA34205D9E1
:1029200007EBC400B0470028F5DAF8BD2435ECE722
:102930000020FAE72C0300205003002038B50C4B90
:1029400000E024330B4CA3420ED25C680A4D6D6A42
:10295000AC42F6D31D69002DF3D094F802C004797F
:10296000A445EED1A84701E06FF0850038BD00BF57
:102970002C03002050030020141100202DE9F04109
:1029800006460F469046114C05E042463946304611
:10299000A84719E024340E4B9C4213D263680D4DB6
:1029A0006D6AAB42F6D3A569002DF3D099783279E0
:1029B0009142EAD05B79012BECD142463946304650
:1029C000A847E7E76FF08500BDE8F0812C03002001
:1029D0005003002014110020F8B507460E46154696
:1029E0000A4C00E024340A4B9C420AD26369002B53
:1029F000F8D02A4631463846984703460028F1D198
:102A000001E06FF085031846F8BD00BF2C030020DD
:102A10005003002010F0700F07D100F07F0310F07A
:102A2000800F44D1012098407047B0B582B000AF0C
:102A30006C4688B06B4613F1100232D00C2142B1C3
:102A40008C46042901DD1C4D5D61BCF1080F00DDE1
:102A500098610B2928DD4FF00C0C3AB10321397134
:102A600000217971B971F9717868186100216FF3EB
:102A700000016FF341016FF382016FF3C501012380
:102A800063F38811CCF30A0C6CF353216FF31F51DD
:102A900000230A48FFF778F9A54600200837BD460D
:102AA000B0BD6FF00041CAE76FF01B0CD5E71033E3
:102AB00001209840704700BF60030100BCFE000089
:102AC00038B5044600790BF0B8FA05462079FFF7CF
:102AD000A1FF044AD2F8C43023EA0003C2F8C4308C
:102AE000284638BD14110020F0B583B000AF05466C
:102AF0000BF0A3FA10F1780F01D0044670B9284604
:102B0000FFF788FF234AD2F8C43023EA0003C2F853
:102B1000C430002420460C37BD46F0BD6E4688B058
:102B20006B4613F110022FD00C214AB1084604293C
:102B300003DDDFF864C0C3F814C0082800DD9D6120
:102B40000B2924DD0C253AB103213971002179715B
:102B5000B971F9717868186100216FF300016FF3A2
:102B600041016FF382016FF3C501012363F3881103
:102B7000C5F30A0363F353216FF31F510023074882
:102B8000FFF702F9B546C5E76FF00041CDE76FF0FA
:102B90001B05D8E7141100207C030100BCFE0000D7
:102BA00070B582B00D4604798DF807402046FFF7D6
:102BB00075FE064630B134F0800306D0FFF752FEB2
:102BC00018B90646304602B070BD5DB1204604F02B
:102BD000FFF80A4BDB69002BF4D00DF10701082048
:102BE0009847EFE7204604F04FF9044BDB69002BD0
:102BF000E8D00DF1070109209847E3E71411002000
:102C0000F0B585B000AF044680783872A3887B8128
:102C1000E37803F003033B73FFF7FCFE0546524BDA
:102C2000D3F8C43003421BD107F1080004F07CF84C
:102C300010F1780F00D0F0B9387A04F06FF910F184
:102C4000780F01D0002852D1474B012083F8B900FA
:102C5000D3F8C4201543C3F8C4501437BD46F0BDA3
:102C600020460AF0EAFC0CF0C4FA0028DCD19620D9
:102C700008F08AFDD8E73C7A6D4688B06B4613F1C0
:102C800010022ED00C213AB10846042901DD374E3E
:102C90005E61082800DD9C610B2925DD0C243AB11A
:102CA0000321397100217971B971F971786818615E
:102CB00000216FF300016FF341016FF382016FF3A5
:102CC000C501012363F38811C4F30A0363F353219D
:102CD0006FF31F5100232648FFF756F8AD4600203A
:102CE000BBE76FF00041CEE76FF01B04D7E73C7AFB
:102CF0006D4688B06B4613F110022ED00C213AB10C
:102D00000846042901DD1B4E5E61082800DD9C6138
:102D10000B2925DD0C243AB1032139710021797189
:102D2000B971F9717868186100216FF300016FF3D0
:102D300041016FF382016FF3C501012363F3881131
:102D4000C4F30A0363F353216FF31F5100230848B0
:102D5000FFF71AF8AD4600207FE76FF00041CEE79D
:102D60006FF01B04D7E700BF14110020A00301007F
:102D7000BCFE0000C40301002DE9F8430646194BD0
:102D80005C6A0027FF25A846B94607E094F803804F
:102D9000A578B088854212D023781C442378C3B12B
:102DA0006378042BF2D0052BF6D1B3889D42F3D182
:102DB000B278414620460AF055FC0746ECE7718898
:102DC0008845E9D1C9B2C0B2FFF7AAFC0746A146BF
:102DD000E2E7044BDB6913B14946072098473846C0
:102DE000BDE8F8831411002008B50822002102482C
:102DF0000BF013F808BD00BFCF1100202DE9F04102
:102E00000546224B5C6A43881BB10027FF26B0466B
:102E100010E0FFF7E9FF6A881C4B83F8BA20DB69F2
:102E200013B11B490320984701271EE094F8038043
:102E300023781C442378BBB16378042BF6D0052B90
:102E400007D0022BF4D166796B889E42F0D101271E
:102E5000EEE76B889E42EBD1B8F1000FE8D1204637
:102E6000FFF7CEFE0746E3E717B93846BDE8F08125
:102E7000FFF7BAFF6A88054B83F8BA20DB69002B9D
:102E8000F3D0034903209847EFE700BF1411002057
:102E9000CE11002010B5146890F90030002B0ADB29
:102EA0004378013B082B3AD8DFE803F024392F3967
:102EB0001A39393921004378062B07D0082B08D05E
:102EC0000BB1002010BDFFF765FCFBE7FFF778FCB6
:102ED000F8E7144B93F8BA30237001200860F1E74B
:102EE000807803F0A5FEB0FA80F04009EAE7FFF72A
:102EF00085FFE7E74388012B01D00020E2E7094B7B
:102F0000002283F8C3200120DCE74388012B01D095
:102F10000020D7E70120034B83F8C300D2E700204D
:102F2000D0E700BF1411002070B505460E460428F6
:102F300003D0012803D0134C11E0FFF755FF124BCB
:102F400093F8B930002BF6D000F0BAFE0F48FFF727
:102F5000D9FC0D4B002283F8B920ECE724340C4B4C
:102F60009C4207D2E368002BF8D03246294620461F
:102F70009847F3E7044B1B6A13B13146284698473C
:102F800070BD00BF2C03002014110020C12A0000D6
:102F90005003002070B504460D461646184B9B6939
:102FA0000BB1984748B1237803F01F03012B0DD0D4
:102FB000022B13D013B16FF0150070BD32462946B5
:102FC0002046FFF767FF88B10020F6E73246294622
:102FD00020460AF050FB60B10020EEE73246294659
:102FE00020460AF090FB38B10020E6E76FF01500AC
:102FF000E3E76FF01500E0E76FF01500DDE700BFD5
:103000001411002070B50E4E0E4B9E4215D2356A3B
:10301000002401E00134E4B2337F9C420BD205EB83
:10302000C40355F83410187904F0F6F90028F1D0EB
:103030004FF0FF3070BD2436E6E70020FAE700BF0E
:103040002C0300205003002010B582B0134B1B7DD1
:10305000D3B9124CE268019201ABA16880200AF05A
:1030600075FBA368019A1344A360E3689B1AE360AD
:1030700093B98AB1E28823699A420DDD13F03F0FBC
:103080000AD10122227507E00021044B19750B4675
:103090000A46802003F070FF02B010BD141100201A
:1030A00010B58AB000230393002840F0AF8039B3F5
:1030B0005D4BDA68002A40F3918003AB5A49896876
:1030C00000200AF0D3FF0028C0F29580564A93688A
:1030D00003990B449360D3685B1AD360002B40F0D4
:1030E0009780104602F1380342F8083F00F11001C2
:1030F000FFF72EFB002800F08580FFF7A5FF87E093
:10310000082201A90AF0B2FF002830DB9DF8040074
:10311000454B18709DF805205A70BDF806205A805E
:10312000BDF808209A80BDF80A10D98003F1380252
:103130009A6000221A751A61DA6010F0800F03D1CC
:10314000802918D8002941D1384A02F10801A2F19A
:103150000800FFF7FDFA00283CD0334BDA881969E4
:103160008A42A8BF0A46DA60FFF76EFF50E080206F
:1031700003F02EFE4CE02E4B099302238DF8003015
:1031800014468DF801208DF802208DF80320009B55
:103190000893114662F3000162F3410162F3820178
:1031A00062F3C501012363F38811082363F35321FC
:1031B00062F31F51134608AA1E48FEF7E5FD802062
:1031C00003F006FE204603F003FE21E0164B1961D2
:1031D000D9601DE0802003F0FBFD19E003AB002265
:1031E0001149896810460AF041FF002810DA802052
:1031F00003F0EEFD0CE0802003F0EAFD002003F078
:10320000E7FD05E0802003F0E3FD01E0802801D028
:103210000AB010BD044BDB681BB9034B1B7D002BB0
:10322000F6D0FFF711FFF3E7141100201C11002066
:10323000E8030100BCFE000008B5FFF7A5FA084945
:103240000020FFF799FA07490120FFF795FA064990
:103250000220FFF791FA0548FFF748FB002008BD60
:10326000952F00003D290000D92900007D2900008C
:103270001B4B93F8B83083BB00B589B000F066FAF9
:1032800028B1FFF7D9FF002009B05DF804FB154B0A
:10329000079302238DF8043000238DF805308DF854
:1032A00006308DF80730019A0692194663F3000143
:1032B00063F3410163F3820163F3C501012262F309
:1032C0008811082262F3532163F31F5106AA0648AE
:1032D000FEF75AFD4FF0FF30D6E76FF077007047EA
:1032E0001411002004040100BCFE000030B583B0BE
:1032F00005464FF0FF324FF0FF33364807F034FCFD
:10330000354B93F8B830002B5BD101200AF093F9CC
:10331000041E58DB304B1D62304C2046FFF7ECFAA0
:10332000204604F08DF803F047FC041E4BDB00F050
:10333000F3FC041E47DB4023ADF8023000238DF878
:1033400004308DF80030684603F0EEFC041E3ADBD2
:1033500080238DF80030684603F0E6FC041E32DB63
:103360001F49002004F058F8041E2CDB1C49802063
:1033700004F052F8041E26DBFFF744FE041E22DB95
:10338000002003F0CBFD041E1DDB0020FFF742FBF5
:10339000114AD2F8C4300343C2F8C430802003F08D
:1033A000BDFD041E0FDB8020FFF734FB0A4BD3F872
:1033B000C4200243C3F8C420012283F8B8200024AB
:1033C00001E06FF07704034807F052FC204603B099
:1033D00030BD00BF4002002014110020292F000042
:1033E000A13000000246064800E02430054B984218
:1033F00003D243689342F8D100E00020704700BF39
:103400002C0300205003002010B58AB00DF1040CED
:103410001D4C0FCCACE80F0023688CF80030102254
:10342000002106A80AF0F9FC1222002117480AF030
:10343000F4FC102106A80BF03FF8002820DD082836
:10344000B8BF0820A0F1080C002217E00CEB020323
:1034500028336B4413F8103C51000AA800EB1310FA
:1034600010F824EC094800F812E003F00F030131D2
:1034700028336B4413F8243C43540132072AE5DD1A
:1034800002480AB010BD00BF38040100DC11002062
:1034900070B588B00446FFF7B7FF20B105460AF0C3
:1034A0007AFC064608B908B070BD17480AF073FCEC
:1034B000864223D0154B079302238DF80430002356
:1034C0008DF805308DF806308DF80730019A069298
:1034D000194663F3000163F3410163F3820163F36F
:1034E000C501012262F38811082262F3532163F3BC
:1034F0001F5106AA0648FEF747FCD4E73246294684
:10350000A01C0AF05BFCCEE7380401004C0401006B
:10351000B4FE00002DE9F04395B000AF04464FF033
:1035200001137B600025A846A9462E46B2E0E37849
:10353000002B40F0AD80A3784BB92046FFF752FF37
:10354000814648B1836813B141462046984708F147
:1035500001085FFA88F89BE06D4688B0694611F172
:1035600010020DD00C233AB11846042B01DD714E28
:103570004E61082807DD8C610B2B29DD0C2304E04C
:103580006FF00043EFE76FF01B033AB10320387090
:1035900000207870B870F8703868086100216FF307
:1035A00000016FF341016FF382016FF3C501012048
:1035B00060F38811C3F30A0363F353216FF31F51C0
:1035C00000235D48FEF7E0FBAD464FF0FF30A9E079
:1035D0006FF01B03D9E7B9F1000F29D03A1D494616
:1035E00020460AF0E0F8002852D0544BFB61022339
:1035F0003B7000237B70BB70FB703A68BA61194660
:1036000063F3000163F3410163F3820163F3C501D6
:10361000012262F38811082262F3532163F31F51E0
:1036200007F118024448FEF7AFFB4FF0FF3079E096
:10363000434B7B6302233B7000237B70BB70FB70AA
:103640003A683A63194663F3000163F3410163F397
:10365000820163F3C501012262F38811082262F33B
:10366000532163F31F5107F130023348FEF78CFBFF
:103670004FF0FF3056E0032D22D02DBB46B3A31BE5
:10368000B370C3F30723F37086F804800135EDB2FD
:1036900023781C442378002B3FD06378052BF7D880
:1036A00001A252F823F000BF7736000091360000E7
:1036B00017370000773600002F350000D73500009F
:1036C0002046FFF7E5FED8E720460AF05AF8DDE786
:1036D0001C4BFB6402233B7000237B70BB70FB70B0
:1036E0003A68BA64194663F3000163F3410163F376
:1036F000820163F3C501012262F38811082262F39B
:10370000532163F31F5107F148020B48FEF73CFBBE
:103710004FF0FF3006E02646BAE7A01C0A4B98425D
:1037200004D100205437BD46BDE8F083FFF7F2FE18
:10373000F8E700BF98040100B4FE0000FC0401009B
:10374000B80401001C0501002B03002010B588B04F
:103750001648FFF7DFFE10B9144808B010BD144B2F
:10376000079302238DF8043000248DF805408DF86E
:1037700006408DF80740019B0693214664F3000143
:1037800064F3410164F3820164F3C501012363F32F
:103790008811082363F3532164F31F51234606AABB
:1037A0000448FEF7F1FA2046D7E700BF7402002074
:1037B0003C050100B4FE0000002300E00133032BB0
:1037C0000CD89A0106498A5C8242F7D101EB831238
:1037D0005268002AF2D001EB831070470020704736
:1037E000F01100202DE9F04383B000AF044610F83B
:1037F0002C5C50F8283C13F1100F0DD1036913F025
:10380000020F00F08E8050F8202C62BB13F0040FE2
:1038100022D0002344F8283C54F8283C13F1100F20
:1038200016D054F8186C9EB154F81C8C54F8149CA3
:103830000BF0DFFC002840F0E880002344F8183C3F
:10384000A4F1100007F090FA4A4641462846B047D6
:103850000C37BD46BDE8F08300231A4619462846BA
:1038600009F074FFD5E73B1D50F8241C284609F0E9
:103870006DFF844680B954F8242C7B681A4444F8C0
:10388000242C54F8202CD21A44F8202C54F81C2C48
:10389000134444F81C3CBFE76E4688B06B4613F1F6
:1038A000100238D010216AB10846042903DDDFF880
:1038B00064E1C3F814E0082801DDC3F818C00C283F
:1038C00000DDDD610F2929DD4FF0100C3AB1042134
:1038D000397000217970B970F97038681861002169
:1038E0006FF300016FF341016FF382016FF3C501C4
:1038F000012363F38811CCF30A0363F353216FF3BD
:103900001F5100234448FEF73FFAB5466FF01503F8
:1039100044F8283C80E76FF00041C4E76FF01B0CCF
:10392000D4E73B1D50F8202C50F8241C284603F007
:103930002DFC0646A8B954F8243C7E68334444F86C
:10394000243C54F8203C9B1B44F8203C54F81C3C7D
:10395000334444F81C3C002E46D1002344F8283C54
:103960005AE7E84688B06B4613F1100236D01021B2
:1039700062B10846042903DDDFF898C0C3F814C01B
:10398000082800DD9E610C2800DDDD610F2928DD9F
:1039900010263AB10421397000217970B970F9709C
:1039A0003868186100216FF300016FF341016FF374
:1039B00082016FF3C501012363F38811C6F30A0680
:1039C00066F353216FF31F5100231348FEF7DCF910
:1039D000C5466FF0150344F8283C1DE76FF0004121
:1039E000C6E76FF01B06D4E7284603F02FFDB6FBB1
:1039F000F0F300FB1366002EAFD154F8203C002BEF
:103A0000ABD0284603F06CFC06E7214603480BF0D8
:103A10008DFD1DE76C050100CCFE00004008002074
:103A200070B588B006460C46FFF7C6FE631EDBB2D3
:103A3000012B0AD8054650B10BF0DBFB08B1012C75
:103A400034D105F12C00FFF7CDFE08B070BD012C7C
:103A5000FBD16B46012201A9304603F097FB009B86
:103A6000002BF6D1144B079302238DF8043000236A
:103A70008DF805308DF806308DF80730019A0692E2
:103A8000194663F3000163F3410163F3820163F3B9
:103A9000C501012262F38811082262F3532163F306
:103AA0001F5106AA0548FEF76FF9CEE705F12C0174
:103AB00003480BF03BFDC8E78C050100CCFE00007D
:103AC000400800202DE9F04F8BB000AF064679602A
:103AD00091469A4609F00AFF002840F0C3804FF053
:103AE0002003EFF3118583F31288BFF36F8F002457
:103AF000032C35D8A00118305C4B18440430002248
:103B0000002307F055F9804608B10134F0E7A2011F
:103B1000564B03EB8414D4F804B01BF1100F4AD0B9
:103B20009E547B68A360C4F80C90002323613B6D16
:103B30006361C4F83CA07B6DA3616FF00F03636009
:103B4000304603F083FC002878D11AF0020F00F011
:103B5000848004F12C0146480BF0E8FCC34621E0C8
:103B6000444B7B6202233B7300237B73BB73FB7369
:103B7000FA683A62194663F3000163F3410163F3A3
:103B8000820163F3C501012262F38811082262F306
:103B9000532163F31F5107F120023748FEF7F4F871
:103BA0006FF00B0B85F31188BFF36F8F58462C37DE
:103BB000BD46BDE8F08FE84688B06B4613F11002B1
:103BC0000FD00C214AB10846042903DDDFF8ACC050
:103BD000C3F814C0082807DD9E610B292BDD0C26D5
:103BE00004E06FF00041EDE76FF01B063AB10321EE
:103BF000397300217973B973F973F868186100217A
:103C00006FF300016FF341016FF382016FF3C501A0
:103C1000012363F38811C6F30A0666F353216FF399
:103C20001F5100231448FEF7AFF8C54604F11C00ED
:103C300007F09AF8B6E76FF01B06D7E7304603F0B7
:103C400005FCB9FBF0F300FB1393002B3FF47DAFB1
:103C5000E36B43F00403E36377E7304603F040FB94
:103C600083469FE76FF00F0BA0E700BFF011002025
:103C700040080020A8050100CCFE0000C40501009A
:103C800010B54FF02003EFF3118483F31288BFF3D4
:103C90006F8FFFF791FD20B10146436813F1100FBC
:103CA00004D084F31188BFF36F8F10BD6FF08B03C6
:103CB00043602C3101480BF039FCF2E7400800204A
:103CC00038B5002404E085F31188BFF36F8F013409
:103CD000032C1CD84FF02003EFF3118583F31288D7
:103CE000BFF36F8F0A4B03EB84135B6813F1100F64
:103CF000E9D1074BA10103EB84126FF08B005060F8
:103D000028311944043103480BF010FCDBE738BDBF
:103D1000F01100204008002070B5002511E0AC0132
:103D200004F12800094E3044094904300BF0E2FB4D
:103D300004F1180030440430012211460BF04FFB0F
:103D40000135032DEBD9002070BD00BFF01100201C
:103D5000E5370000F0B583B000AF04460E461546C7
:103D60000179344809F092FD58B194F90020002AF5
:103D700050DB6278202A41D0222A46D06FF085009D
:103D800051E0A4886D4688B06B4613F110022FD025
:103D90000C213AB10846042901DD274E5E6108284E
:103DA00000DD9C610B2926DD0C243AB10321397119
:103DB00000217971B971F9717868186100216FF388
:103DC00000016FF341016FF382016FF3C50102231C
:103DD00063F38811C4F30A0464F353216FF31F5192
:103DE00000231648FDF7D0FFAD466FF012001AE031
:103DF0006FF00041CDE76FF01B04D6E7072229687A
:103E0000103809F0DBFF00200DE0A27800F8092C43
:103E1000002008E06278212A08D1A0F110032B606D
:103E20000723336000200C37BD46F0BD6FF08500DE
:103E3000F9E700BFF012002000060100ACFE000010
:103E4000F0B583B000AF04460146224809F032FDC8
:103E500028B1012200F8072C0C37BD46F0BD6D4695
:103E600088B06B4613F110022DD00C213AB10846F0
:103E7000042901DD184E5E61082800DD9C610B29D4
:103E800024DD0C243AB10321397100217971B97113
:103E9000F9717868186100216FF300016FF3410137
:103EA0006FF382016FF3C501022363F38811C4F33A
:103EB0000A0464F353216FF31F5100230748FDF7F1
:103EC00063FFAD46C8E76FF00041CFE76FF01B041A
:103ED000D8E700BFF012002028060100ACFE000069
:103EE00008B50169012381F84B300B6813B191F8D3
:103EF000493003B908BD083101480BF017FBF9E759
:103F00004008002008B50169012381F84A300B6898
:103F100013B191F8483003B908BD083101480BF0DE
:103F200005FBF9E740080020F0B585B002AF064672
:103F300014460D1E51DD2A4604F14C01D4F88C00C4
:103F400008F06EFE854237D9291A6D4688B002AB5B
:103F500013F110024ED00C2052B18446042803DD28
:103F6000DFF8B0E0C3F814E0BCF1080F00DD9961A0
:103F70000B2842DD4FF00C0C3AB1032139710021BE
:103F80007971B971F9717868186100216FF30001D6
:103F90006FF341016FF382016FF3C501012363F3F6
:103FA0008811CCF30A0363F353216FF31F510023ED
:103FB0001948FDF7E9FEAD46012384F8493023682E
:103FC00013B194F84B30DBB9D4F88C10CB694A6844
:103FD0004969521A9B1A3F2B18D901940F4B009331
:103FE0000123402204F14C013046FFF76BFD0C37F2
:103FF000BD46F0BD6FF00040AEE76FF01B0CBBE7B5
:1040000004F1080106480BF091FADDE7012384F87A
:10401000A030ECE750060100ACFE0000293F000094
:104020004008002008B503464FF0000C80F89EC001
:1040300080F89FC080F849C080F848C00B4A92E8D9
:104040000300C3F89400A3F89810090C83F89A10A1
:1040500083F89CC083F89BC083F8A0C040226146CF
:1040600003F14C0009F0D9FE08BD00BF40FF00007D
:1040700030B5A1B00446D0F8A4305D6801390529F7
:1040800006D8DFE801F00305074B7299FFF7CAFF76
:1040900021B030BD704B1F9302238DF804300023F4
:1040A0008DF805308DF806308DF80730019A1E9294
:1040B000194663F3000163F3410163F3820163F383
:1040C000C501032262F38811082262F3532163F3CE
:1040D0001F511EAA6148FDF757FE94F89E309BB110
:1040E00094F84830002BD3D1012384F8483023685A
:1040F000002BCDD094F84A30002BC9D004F1080130
:1041000057480BF013FAC3E72B6A22460021187BAD
:10411000FFF70AFF012384F89E30E1E7514B199322
:1041200002238DF8043000238DF805308DF8063019
:104130008DF80730019A1892194663F3000163F372
:10414000410163F3820163F3C501032262F3881125
:10415000082262F3532163F31F5118AA3F48FDF769
:1041600013FE2046FFF75EFF92E73F4B13930223B7
:104170008DF8043000238DF805308DF806308DF869
:104180000730019A1292194663F3000163F341016B
:1041900063F3820163F3C501032262F388110822ED
:1041A00062F3532163F31F5112AA2C48FDF7ECFD73
:1041B000012384F89F306BE72C4B079302238DF883
:1041C000043000238DF805308DF806308DF8073067
:1041D000019A0692194663F3000163F3410163F308
:1041E000820163F3C501032262F38811082262F39E
:1041F000532163F31F5106AA1848FDF7C5FD94F833
:104200009F30002B3FF444AF194B0D9302238DF8E0
:10421000043000258DF805508DF806508DF80750B4
:10422000019B0C93294665F3000165F3410165F399
:10423000820165F3C501032363F38811082363F347
:10424000532165F31F512B460CAA0448FDF79CFD32
:1042500084F89F501CE700BF74060100ACFE00000C
:1042600040080020880601009C060100B0060100FD
:10427000C0060100F0B583B000AF04460D461646F7
:104280000146234809F0F0FA38B132462946A438ED
:10429000FFF7EEFE0C37BD46F0BD6D4688B06B46AD
:1042A00013F110022DD00C213AB10846042901DD8A
:1042B000184E5E61082800DD9C610B2924DD0C246A
:1042C0003AB10321397100217971B971F9717868B6
:1042D000186100216FF300016FF341016FF3820158
:1042E0006FF3C501022363F38811C4F30A0363F378
:1042F00053216FF31F5100230748FDF745FDAD46DD
:10430000C8E76FF00041CFE76FF01B04D8E700BFAC
:10431000F0120020D0060100ACFE000030B585B0E0
:1043200005694368A1228DF8042020228DF805201C
:104330000024ADF80640ADF808400222ADF80A208E
:10434000ADF80C1085F89D40186A23460A2201A991
:10435000007909F0FBF995F89D304BB901200BF07D
:104360001DFB0134044B9C42F5D96FF0040000E0C2
:10437000002005B030BD00BFA08601002DE9F0414E
:1043800082B000AF1446066996F89E301BB196F8CD
:104390009F30002B3DD06D4688B06B4613F1100264
:1043A00031D00C213AB10846042901DD404E5E614E
:1043B000082800DD9C610B2928DD0C243AB103217B
:1043C000397100217971B971F9717868186100212A
:1043D0006FF300016FF341016FF382016FF3C501C9
:1043E000022363F38811C4F30A0363F353216FF3C9
:1043F0001F5100232F48FDF7C7FCAD4600200837AA
:10440000BD46BDE8F0816FF00041CBE76FF01B04C3
:10441000D4E7002386F84830D6F8900008F000FC76
:104420000546A04235D2241AE84688B06B4613F1FF
:10443000100237D00C214AB10846042903DDDFF809
:1044400078C0C3F814C0082800DD9C610B292CDD5E
:104450000C243AB10321397100217971B971F971D4
:104460007868186100216FF300016FF341016FF369
:1044700082016FF3C501022363F38811C4F30A03B9
:1044800063F353216FF31F5100230A48FDF77CFCAF
:10449000C5460022002306F1180108480BF05CF81D
:1044A0002846ACE76FF00041C5E76FF01B04D0E78A
:1044B000F4060100ACFE0000500601004008002098
:1044C00030B597B08DF80710046994F89E3013B199
:1044D00094F89F3023B3474B159302238DF80C308B
:1044E00000238DF80D308DF80E308DF80F30039AC3
:1044F0001492194663F3000163F3410163F38201EF
:1045000063F3C501032262F38811082262F3532189
:1045100063F31F5114AA3848FDF736FC17B030BDBD
:10452000002384F8483001220DF10701D4F89000EF
:1045300008F076FB90BB314B099302238DF80C30C9
:1045400000258DF80D508DF80E508DF80F50039BFF
:104550000893294665F3000165F3410165F3820183
:1045600065F3C501032363F38811082363F3532123
:1045700065F31F512B4608AA1F48FDF705FC0122D1
:104580002946D4F8900008F0A6FB78B101220DF17D
:104590000701D4F8900008F043FB38B12122002332
:1045A00004F1180116480AF0D7FFB7E7154B0F932F
:1045B00002238DF80C3000238DF80D308DF80E306D
:1045C0008DF80F30039A0E92194663F3000163F3DE
:1045D000410163F3820163F3C501012262F3881193
:1045E000082262F3532163F31F510EAA0248FDF71C
:1045F000CBFB93E728070100ACFE00004807010051
:10460000400800206807010010B51446012382F815
:104610004830136813B192F84A306BB9D4F890302F
:104620001A699B68934206D00022002304F1180106
:1046300004480AF091FF10BD02F1080101480AF098
:1046400075FFEBE74008002010B50469C4F8A4002A
:1046500004F1A8030022C4F8A8200B4A526872B1E2
:104660001360094A5360094904F108000AF042FF47
:10467000074904F118000AF063FF002010BD024A48
:1046800053601360EFE700BFF01200201DD9000057
:1046900095460000F0B585B00446A0F11807D0F8A3
:1046A0008C305B681B6A1D7D284609F01FF908B134
:1046B00005B0F0BD4FF4806203A9A06F08F0D0FAF6
:1046C00006460028F4D0002384F8303010F03F0F65
:1046D00000D1461E0197064B0093022332460399F0
:1046E0002846FFF7EFF93146A06F08F0D6FADFE76A
:1046F0000946000030B583B0084D002400944FF007
:10470000FF334FF480620649284606F079FC0549DC
:10471000284606F03DF9204603B030BD4008002091
:1047200000270020F0070100014910220A607047AD
:1047300010ED00E072B6404080F31188BFF36F8F38
:10474000BFF34F8F30BF62B6BFF36F8F704700BFAC
:1047500072B6494081F31188BFF34F8F20BF80F3B9
:10476000118862B6704700BF2DE9F04182B000AFFA
:104770000446D0F800E0D0F804C086686D468AB0E0
:104780006B4613F1100200F0EB8014218AB1084649
:10479000042903DDDFF8F881C3F81480082801DD5F
:1047A000C3F818E00C2801DDC3F81CC0102800DD98
:1047B0001E62132940F3D7804FF0140C3AB1052143
:1047C000397100217971B971F97178681861002126
:1047D0006FF300016FF341016FF382016FF3C501C5
:1047E000012363F38811CCF30A0C6CF353216FF3AC
:1047F0001F5100236748FDF7C7FAAD46D4F80CE017
:10480000D4F810C066696D468AB06B4613F1100289
:1048100000F0AC8014218AB10846042903DDDFF8DA
:104820007881C3F81480082801DDC3F818E00C284B
:1048300001DDC3F81CC0102800DD1E62132940F3FF
:1048400098804FF0140C3AB105213971002179712B
:10485000B971F9717868186100216FF300016FF385
:1048600041016FF382016FF3C501012363F38811E6
:10487000CCF30A0C6CF353216FF31F51002345480E
:10488000FDF782FAAD46E6696D4688B06B4613F1D6
:10489000100271D00C214AB10846042903DDDFF86B
:1048A000FCC0C3F814C0082800DD9E610B2966DD3A
:1048B0004FF00C0C3AB10321397100217971B971B3
:1048C000F9717868186100216FF300016FF34101FD
:1048D0006FF382016FF3C501012363F38811CCF3F9
:1048E0000A0C6CF353216FF31F5100232948FDF785
:1048F0004BFAAD46A46988B06B4613F1100241D063
:104900000C213AB10846042901DD254D5D610828D6
:1049100000DD9C610B2938DD0C243AB1032139718B
:1049200000217971B971F9717868186100216FF30C
:1049300000016FF341016FF382016FF3C5010123A1
:1049400063F38811C4F30A0464F353216FF31F5116
:1049500000231048FDF718FA0837BD46BDE8F0817E
:104960006FF0004112E76FF01B0C27E76FF000417A
:1049700051E76FF01B0C66E76FF000418BE76FF0BB
:104980001B0C97E76FF00041BBE76FF01B04C4E717
:10499000FC0701008CFE00002C0801005C080100EF
:1049A0006C080100002807DB00F01F02400901230A
:1049B0009340024A42F82030704700BF00E100E017
:1049C00000280CDB00F01F02400901239340203037
:1049D000034A42F82030BFF34F8FBFF36F8F704709
:1049E00000E100E0002808DB4901C9B200F16040A5
:1049F00000F5614080F80013704700F00F00490196
:104A0000C9B2014B1954704714ED00E04209054B3F
:104A100053F8222000F01F00012303FA00F0104099
:104A2000704700BF00E100E030BFFFF7FDBF00BFEF
:104A300008B50B4B0B4A22F07F029A60BFF34F8FF1
:104A4000BFF36F8FD3F8882022F47002C3F8882058
:104A500005F092FE06F020FF00F09EFF05F0EAFE52
:104A600000ED00E0000000000A4A9368C3F8A800C7
:104A700009490968C3F8AC1008494B6843F08053F2
:104A80004B60002383F31188BFF36F8F9368D3F8D3
:104A9000AC007047502300207411010000ED00E0CD
:104AA00013498A684FF030001044EFF3098C80E816
:104AB000F01F202080F31288BFF36F8F0D4F4FF04F
:104AC00000668A698A603E60D2F8A8000023C2F8B6
:104AD000A83080F3118804B5104601F00DF8BDE848
:104AE000044002F1300090E8F01F8CF30988704711
:104AF0005023002004ED00E01EF0040F0CBFEFF384
:104B00000880EFF30980816911F8021C0229FFD0A7
:104B100001B509F09BF801BD10B4A2F120040E49C3
:104B200042F8081C21F0010142F8081C42F8203C20
:104B3000019B42F81C3C029B42F8183C039B42F844
:104B4000143C4FF0807342F8043C04650023C0F825
:104B5000A83010BC704700BF53BF0000104B9B68CB
:104B6000BBB110F1160F0BD0D3F89820A2F1400C76
:104B7000844510D8824210D98A4207D80020704755
:104B8000D3F898208A4201D800207047D3F89800C3
:104B9000704700207047002070470020704700BF1A
:104BA0005023002008B50D461446084B986000F0CD
:104BB000A3FF204685F30988002163B681F311889D
:104BC000BFF36F8F0022002307F0C3F950230020AA
:104BD00001B572B60B4A506900281EBF0021516111
:104BE0000AF040FB62B6EFF30580A0F110004FEA37
:104BF000C0000549014409C99847BDE8014003497F
:104C0000084700005023002094FC0000114C0000D5
:104C1000044B99689869884203D003494FF0805249
:104C20000A6070475023002004ED00E081690D4BBD
:104C30005A6942F480725A61BFF34F8FBFF36F8F8E
:104C400031F8021C5A6922F480725A61BFF34F8F07
:104C5000BFF36F8F4DF60273994201D00020704769
:104C60000120704700ED00E010B588B000241C70F2
:104C700002F07F44B4F17F4F32D102F00C04082CD3
:104C800005D012F0080F28D0084608B010BD154B0B
:104C9000079302238DF8043000248DF805408DF829
:104CA00006408DF80740019B0693214664F30001FE
:104CB00064F3410164F3820164F3C501012363F3EA
:104CC0008811082363F3532164F31F51234606AA76
:104CD0000548FDF759F82046D7E701221A70D4E7B6
:104CE0000020D2E79C0801008CFE00002DE9F04175
:104CF000ACB000AF054688461446B94BFB610223B1
:104D00003B7100237B71BB71FB717A68BA611946F4
:104D100063F3000163F3410163F3820163F3C501AF
:104D2000012262F38811082262F3532163F31F51B9
:104D300007F11802AB48FDF727F8AB4B9B6A13F459
:104D4000805F2BD11626A84B9B6A13F4006F47D1C6
:104D5000A54B9B6A13F4007F64D1A34B9B6A13F4A9
:104D6000806F40F0D380A04B9B6A13F4807F40F0AB
:104D7000EF809D4B9B6A13F4005F40F00D819A4ACF
:104D8000936A43F47F4393620121284608F080FF31
:104D900020703046B037BD46BDE8F081934B7B6351
:104DA00002233B7100237B71BB71FB717A683A630C
:104DB000194663F3000163F3410163F3820163F376
:104DC000C501012262F38811082262F3532163F3C3
:104DD0001F5107F130028348FCF7D6FF1726B2E7D0
:104DE000834BFB6402233B7100237B71BB71FB711E
:104DF0007A68BA64194663F3000163F3410163F30F
:104E0000820163F3C501012262F38811082262F373
:104E1000532163F31F5107F148027248FCF7B4FFB6
:104E2000182695E7734B7B6602233B7100237B7149
:104E3000BB71FB717A683A66194663F3000163F34C
:104E4000410163F3820163F3C501012262F388111A
:104E5000082262F3532163F31F5107F16002614896
:104E6000FCF792FF604B986B9B6A13F4004F49D09C
:104E70006E4688B06B4613F1100211D00C2152B16E
:104E80008C46042903DDDFF870E1C3F814E0BCF1BF
:104E9000080F08DD98610B2931DD4FF00C0C04E0A0
:104EA0006FF00041EBE76FF01B0C3AB10321397151
:104EB00000217971B971F9717868186100216FF377
:104EC00000016FF341016FF382016FF3C50101230C
:104ED00063F38811CCF30A0363F353216FF31F517B
:104EE00000234048FCF750FFB546B8F1000F0BD047
:104EF0003D4A936A23F40043936219262DE76FF02D
:104F00001B0CD2E7192628E7192626E73B4BFB673F
:104F100002233B7100237B71BB71FB717A68BA6716
:104F2000194663F3000163F3410163F3820163F304
:104F3000C501012262F38811082262F3532163F351
:104F40001F5107F178022748FCF71EFF1A260AE7CF
:104F50002B4BC7F8AC3002233B7100237B71BB7134
:104F6000FB717A68C7F8A820194663F3000163F360
:104F7000410163F3820163F3C501012262F38811E9
:104F8000082262F3532163F31F5107F1A802154869
:104F9000FCF7FAFE1B26F2E61A4BC7F89430022300
:104FA0003B7100237B71BB71FB717A68C7F890205D
:104FB000194663F3000163F3410163F3820163F374
:104FC000C501012262F38811082262F3532163F3C1
:104FD0001F5107F190020348FCF7D6FE1C26CEE6CF
:104FE000C80801008CFE000000ED00E0E0080100B0
:104FF000F408010008090100240901003C0901002E
:10500000580901007009010000B5ADB0964B079337
:1050100002238DF8043000238DF805308DF806301A
:105020008DF80730019A0692194663F3000163F385
:10503000410163F3820163F3C501012262F3881128
:10504000082262F3532163F31F5106AA8748FCF735
:105050009BFE874B9B6A13F0007F26D11D20844B5B
:105060009B6A13F0807F45D1814B9B6A13F4002F1C
:1050700065D17F4B9B6A13F4802F40F085807C4B79
:105080009B6A13F4003F40F0A480794B9B6A13F4B1
:10509000803F40F0C380764A936A6FEA03436FEA29
:1050A000134393622DB05DF804FB724B0D93022302
:1050B0008DF8043000238DF805308DF806308DF81A
:1050C0000730019A0C92194663F3000163F3410122
:1050D00063F3820163F3C501012262F388110822A0
:1050E00062F3532163F31F510CAA6048FCF74CFE96
:1050F0001E20B4E7604B139302238DF80430002385
:105100008DF805308DF806308DF80730019A12922F
:10511000194663F3000163F3410163F3820163F312
:10512000C501012262F38811082262F3532163F35F
:105130001F5112AA4D48FCF727FE1F2094E74F4B42
:10514000199302238DF8043000238DF805308DF873
:1051500006308DF80730019A1892194663F3000162
:1051600063F3410163F3820163F3C501012262F33A
:105170008811082262F3532163F31F5118AA3B4898
:10518000FCF702FE212074E73D4B1F9302238DF8AC
:10519000043000238DF805308DF806308DF8073087
:1051A000019A1E92194663F3000163F3410163F310
:1051B000820163F3C501012262F38811082262F3C0
:1051C000532163F31F511EAA2848FCF7DDFD22205E
:1051D00055E72C4B259302238DF8043000238DF8DE
:1051E00005308DF806308DF80730019A2492194663
:1051F00063F3000163F3410163F3820163F3C501CB
:10520000012262F38811082262F3532163F31F51D4
:1052100024AA1648FCF7B8FD232036E71A4B2B9337
:1052200002238DF8043000238DF805308DF8063008
:105230008DF80730019A2A92194663F3000163F34F
:10524000410163F3820163F3C501012262F3881116
:10525000082262F3532163F31F512AAA0348FCF783
:1052600093FD242017E700BFA00901008CFE000079
:1052700000ED00E0B8090100CC090100E8090100D7
:10528000080A0100300A01004C0A010000B589B08B
:1052900000230B70124A079202228DF804208DF829
:1052A00005308DF806308DF80730019A06921946C0
:1052B00063F3000163F3410163F3820163F3C5010A
:1052C000012262F38811082262F3532163F31F5114
:1052D00006AA0448FCF758FD09B05DF804FB00BFBE
:1052E000780A01008CFE000090B583B000AF0F2952
:1052F00023DC2F4C103900233B7102237B718AB0D1
:10530000EC461CF110021AD0122022B1042802DD52
:10531000284BCCF8143000233B7002237B70E2B1A1
:105320000346082801DDCCF818400C2B01DDCCF831
:105330001C100CF1200300210DE01F4CDAE76FF088
:105340000040E2E701F1080404EB070E1EF808EC48
:1053500003F801EB01310129F4D9112824DD1223CE
:105360004AB10421397100217971B9710121F971B2
:105370007868CCF8100000216FF300016FF3410151
:105380006FF382016FF3C501012060F38811C3F34D
:105390000A0363F353216FF31F5100230748FCF7FF
:1053A000F3FC0C37BD4690BD6FF01B03D8E700BF80
:1053B0009C0A0100D00A0100B40A01008CFE000022
:1053C0002DE9F043A7B000AF044688461546B94B17
:1053D000FB6102233B7100237B71BB71FB717A6817
:1053E000BA61194663F3000163F3410163F382017B
:1053F00063F3C501012262F38811082262F353218D
:1054000063F31F5107F11802AB48FCF7BDFCAB4B2F
:105410009B6A13F0100F41D11026A84B9B6A13F022
:10542000080F5DD1A54B9B6A13F0020F7AD16FF084
:105430001509A24B9B6A13F0010F40F0EA809F4BC5
:105440009B6A13F0200F40F006819C4B9B6A13F07F
:10545000100F04D1994B9B6A13F0020F05D0974BA4
:105460005B6813F4006F40F01A81944B9B6A13F051
:10547000200F04D0914A536A23F4005353628F4A99
:10548000936A43F0FF0393620121204608F000FC79
:10549000287030469C37BD46BDE8F083884B7B635F
:1054A00002233B7100237B71BB71FB717A683A6305
:1054B000194663F3000163F3410163F3820163F36F
:1054C000C501012262F38811082262F3532163F3BC
:1054D0001F5107F130027848FCF756FC11269CE773
:1054E000784BFB6402233B7100237B71BB71FB7122
:1054F0007A68BA64194663F3000163F3410163F308
:10550000820163F3C501012262F38811082262F36C
:10551000532163F31F5107F148026748FCF734FC3D
:1055200012267FE7684B7B6602233B7100237B7169
:10553000BB71FB717A683A66194663F3000163F345
:10554000410163F3820163F3C501012262F3881113
:10555000082262F3532163F31F5107F1600256489A
:10556000FCF712FC554BD3F834909B6A13F0800F74
:1055700049D06E4688B06B4613F1100211D00C2151
:1055800052B10846042903DDDFF840C1C3F814C056
:10559000082809DDC3F818900B2931DD4FF00C0CF9
:1055A00004E06FF00041EBE76FF01B0C3AB1032110
:1055B000397100217971B971F97178681861002128
:1055C0006FF300016FF341016FF382016FF3C501C7
:1055D000012363F38811CCF30A0363F353216FF3C0
:1055E0001F5100233448FCF7CFFBB546B8F1000F3C
:1055F0000DD0324A936A23F080039362132618E792
:105600006FF01B0CD2E76FF01509132611E7132674
:105610000FE72F4BFB6702233B7100237B71BB71AC
:10562000FB717A68BA67194663F3000163F34101BD
:1056300063F3820163F3C501012262F3881108223A
:1056400062F3532163F31F5107F178021A48FCF704
:105650009BFB1426F3E61F4BC7F8943002233B71E3
:1056600000237B71BB71FB717A68C7F890201946E3
:1056700063F3000163F3410163F3820163F3C50146
:10568000012262F38811082262F3532163F31F5150
:1056900007F190020848FCF777FB1526D5E621466E
:1056A0004846FFF75BFA00283FF4DFAE80F3098835
:1056B0000226DAE6E40A01008CFE000000ED00E0BC
:1056C000FC0A0100F4080100300B0100480B010046
:1056D000600B010070090100F0B59BB000AF0646F9
:1056E0000D46804BFB6102233B7100247C71BC7131
:1056F000FC717B68BB61214664F3000164F34101E6
:1057000064F3820164F3C501012363F38811082364
:1057100063F3532164F31F51234607F118027248C3
:10572000FCF732FB2C70714BDC6A14F002040CD1D4
:105730006E4BDB6A002B2ADB6C4BDC6A14F0804476
:1057400046D120466C37BD46F0BD694B7B660223CF
:105750003B7100247C71BC71FC717B683B66214607
:1057600064F3000164F3410164F3820164F3C50151
:10577000012363F38811082363F3532164F31F515A
:10578000234607F160025848FCF7FEFAD9E7594B67
:10579000FB6402233B7100237B71BB71FB717A6850
:1057A000BA64194663F3000163F3410163F38201B4
:1057B00063F3C501012262F38811082262F35321C9
:1057C00063F31F5107F148024748FCF7DDFAB8E7D9
:1057D000494B7B6302233B7100237B71BB71FB71DF
:1057E0007A683A63194663F3000163F3410163F396
:1057F000820163F3C501012262F38811082262F37A
:10580000532163F31F5107F130023748FCF7BCFA0C
:105810003046FFF70BFA002840D034686D4688B058
:105820006B4613F110020FD00C214AB1084604292F
:1058300003DDDFF8C8C0C3F814C0082807DD9C6189
:105840000B2928DD0C2404E06FF00041EDE76FF038
:105850001B043AB10321397100217971B971F971D1
:105860007868186100216FF300016FF341016FF355
:1058700082016FF3C501012363F38811C4F30A03A6
:1058800063F353216FF31F5100231748FCF77CFA91
:10589000AD46346855E76FF01B04DAE7134B9B6A9B
:1058A00013F0FF0F0FD1114B9C6A14F47F4411D1F8
:1058B0000E4B9B6AB3F5803FFFF443AF3046FFF7D2
:1058C000A3FB04463DE72A4601213046FFF778FD59
:1058D000044636E72A4601213046FFF707FA044618
:1058E0002FE700BF800B01008CFE000000ED00E000
:1058F000980B0100BC0B0100CC0B0100EC0B01006C
:1059000030B58BB01A4B5C68C4F30804002383F3F2
:105910001188BFF36F8F0DF12603FFF7A5F9054638
:105920000DF12702214608F0B5F99DF827300BB19B
:105930000BB030BD04462022294601A808F03EFAEB
:105940009DF826304BB1089BC3F308025AB96FEAA1
:1059500053236FEA4323089305E0089B23F4FF7366
:1059600023F00103089301A9204608F063F9DFE75B
:1059700000ED00E0024A536943F0100353617047A1
:1059800000ED00E0EFF30880EFF3098101B5724606
:10599000FFF7B6FF01BD00BF002206E003F00F03D2
:1059A0000949194420230B7601322F2A0ADC53B20D
:1059B000002BF3DB03F1604303F56143202183F8FF
:1059C0000013F1E7704700BFFCEC00E00020134932
:1059D0000870002080F31488BFF36F8FFBF7B6FECA
:1059E00000200F490860BFF34F8F0E4880F30888EE
:1059F00000F030F8202080F311880B484FF4046148
:105A0000401880F30988EFF314800221084380F3E3
:105A10001488BFF36F8FFFF70BF80000A32300205B
:105A200094ED00E0403D0020802F0020084BD3F88B
:105A30009000C0F30720002306E0054AC2F8983022
:105A40000021C2F8A01001338342F6DB704700BF8B
:105A500000ED00E010B572B6002484F31388FFF760
:105A6000E5FF234608E003F120010E4A4FF0FF3026
:105A700042F821000133DBB2072BF4D9002308E000
:105A800003F16001074A4FF0FF3042F82100013373
:105A9000DBB2072BF4D962B6BFF34F8FBFF36F8F22
:105AA00010BD00BF00E100E008B50A4B9B688342CF
:105AB00002D005F0A5FE08BDEFF30583002BF8D05A
:105AC000054B5A6842F080525A605A6A22F40042EA
:105AD0005A62EEE75023002000ED00E008B5034BCA
